:020000040800F2
:1000000000800120416200084114000843140008E8
:1000100045140008471400084914000800000000B7
:10002000000000000000000000000000414E000839
:100030004B14000800000000E14E0008B74900081A
:1000400091620008916200089162000891620008C4
:1000500091620008916200089162000891620008B4
:1000600091620008916200089162000891620008A4
:100070009162000891620008916200089162000894
:100080009162000891620008916200089162000884
:100090009162000891620008916200089162000874
:1000A0009162000891620008916200089162000864
:1000B0009162000891620008916200089162000854
:1000C0009162000891620008916200089162000844
:1000D00091620008916200084D14000891620008C6
:1000E0009162000891620008916200089162000824
:1000F0009162000891620008916200089162000814
:100100009162000891620008916200089162000803
:1001100091620008916200085D1400089162000875
:1001200091620008916200089162000891620008E3
:1001300091620008916200089162000891620008D3
:1001400091620008916200089162000891620008C3
:1001500091620008916200089162000891620008B3
:1001600091620008916200089162000891620008A3
:10017000916200089162000891620008000000008E
:08018000916200089162000881
:100190000348044B834202D0034B03B11847704716
:1001A0008000002080000020000000000548064B71
:1001B0001B1AD90F01EBA301491002D0034B03B165
:1001C00018477047800000208000002000000000D9
:1001D00010B5064C237843B9FFF7DAFF044B13B18F
:1001E0000448AFF300800123237010BD800000207D
:1001F000000000009074000808B5044B1BB10449CE
:100200000448AFF30080BDE80840CFE700000000DD
:10021000840000209074000810F8012B11F8013BB5
:10022000012A28BF9A42F7D0D01A7047034613F824
:10023000012B002AFBD1181A01387047000000007A
:1002400001F0FF01102A2BDB10F0070F08D010F887
:10025000013B013A8B422DD010F0070F42B3F6D18B
:10026000F0B441EA012141EA014122F007047FF0A4
:1002700000070023F0E80256083C85EA010586EAFB
:10028000010685FA47F5A3FA87F586FA47F6A5FA37
:1002900087F68EB9EED1F0BC01F0FF0102F0070243
:1002A00032B110F8013B013A83EA010313B1F8D1EE
:1002B0000020704701387047002D06BF35460338CF
:1002C000073815F0010F07D1013015F4807F02BF08
:1002D000013015F4C03F0130F0BC0138704700BF59
:1002E00053B94AB9002908BF00281CBF4FF0FF319D
:1002F0004FF0FF3000F09CB9ADF1080C6DE904CE71
:1003000000F006F8DDF804E0DDE9022304B07047F0
:100310002DE9F04782B00646DDF828E00846B446ED
:100320000D46002B4ED18A4214466DD9B2FA82F2A4
:1003300042B1C2F12003954026FA03F394401D43D5
:1003400006FA02FC260CA7B2B5FBF6F14FEA1C43F5
:1003500006FB115543EA054301FB07F0984209D912
:10036000E31801F1FF3580F00381984240F20081EB
:10037000023923441B1A1FFA8CFCB3FBF6F006FB70
:1003800010334CEA034C00FB07F363450AD914EB26
:100390000C0C00F1FF3580F0ED80634540F2EA80FF
:1003A000A444023840EA0140ACEB030C0021BEF14A
:1003B000000F04D02CFA02F30022CEE9003202B082
:1003C000BDE8F0878B4209D9BEF1000F01D0CEE91C
:1003D00000610021084602B0BDE8F087B3FA83F15E
:1003E000174600294DD1834202D3B24200F20F8159
:1003F000B6EB070C60EB030301201D46BEF1000FB6
:10040000DDD0CEE900C5DAE7002A00F098801A4670
:10041000B4FA84F3002B40F0AF800B1B270CA6B27C
:100420000121B3FBF7F54FEA1C4007FB153340EA07
:10043000034306FB05F8984507D9E31805F1FF309B
:1004400002D2984500F2E8800546A3EB08031FFAA4
:100450008CFCB3FBF7F007FB10334CEA034C06FBB4
:1004600000F3634508D914EB0C0C00F1FF3602D2FF
:10047000634500F2CE803046ACEB030C40EA054009
:1004800095E7C1F120058B4022FA05FC4CEA030CEC
:1004900000FA01F426FA05F3E84002FA01F943EA0A
:1004A00004084FEA1C4206FA01FAB0FBF2F71FFA01
:1004B0008CF602FB17004FEA184444EA004407FB9D
:1004C00006F0A0420AD91CEB040407F1FF3380F0C8
:1004D0009C80A04240F29980023F6444241A1FFA93
:1004E00088F3B4FBF2F002FB104443EA044300FB40
:1004F00006F69E4209D91CEB030300F1FF3480F09D
:1005000082809E427FD90238634440EA0740A0FBC4
:1005100009749B1BA3423E46A04664D361D0BEF142
:10052000000F0AD0BAEB060263EB080303FA05F5E5
:10053000CA401543CB40CEE9005300213FE7730882
:1005400043EAC1734A08190C41EA02414FEAC67CEA
:100550009BB2B2FBF4F02646A04627461F2243EA90
:100560000143B1FBF4F1A3EB080341EA004158E772
:100570002946FFE6284615E71A46C3F120019C40AC
:1005800026FA01F320FA01F190400343270C06FA02
:1005900002FCB1FBF7F0A6B207FB1015190C41EAFB
:1005A000054100FB06F58D423BD9611801D28D4211
:1005B00020D8491B0138B1FBF7F5019505FB06F87A
:1005C000019D9BB207FB151143EA0143434526D227
:1005D000E31805F1FF31C6D24345C4D2A91E234416
:1005E000C1E7BA459BD2B7EB090664EB0C040138AE
:1005F000A04694E7651B29440238B1FBF7F5019545
:1006000005FB06F8DCE720467FE71F4666E708465D
:10061000F4E6A44402382FE7023D234415E701998C
:10062000A1E7491BB1FBF7F5019505FB06F8C7E704
:10063000704700BF30B587B001AD0024019402942B
:100640000394049405940F4BDA6C42F00102DA64CF
:10065000DB6C03F001030093009B22464FF47061B2
:100660004FF0904002F024FB4FF47063019301239C
:1006700002930394049429464FF0904002F00AFA42
:1006800007B030BD0010024008B500F005FD08BD00
:1006900008B504F07CF903280FD006DC012809D046
:1006A000022809D100F09CFE06E0042804D100F0E5
:1006B000B7FE01E000F084FE08BD00F0A1FEFBE7FC
:1006C00008B5012004F015FAFBE7000010B584B06E
:1006D000194B186802F0F9FF70B1184B1B780A2B00
:1006E00012D0164B1B780A2B1DD001221349144837
:1006F00005F07CFD04B010BD034602460F490E48CC
:10070000006802F05EFEECE700220DF10F010A4BDB
:100710001C46186802F06DFF00231A46074920683E
:1007200002F04FFEDDE7002100910B460A46054826
:10073000006803F0FFFDD8E7B80000209D0000200E
:10074000D4000020CC00002008B50268034B9A4278
:1007500000D008BD01F028F9FBE700BF0010004001
:1007600072B6FEE708B50A480A4B036040234360AF
:100770007F238360FF23C3600023036143618361A0
:10078000C36104F077FD00B908BDFFF7E9FF00BFC2
:100790005C0100200028004008B50B480B4B0360AB
:1007A0004FF4E133436000238360C36003610C2294
:1007B00042618361C3610362436205F07BFC00B95F
:1007C00008BDFFF7CDFF00BFD4000020004400406B
:1007D00000B597B04422002105A805F097FE00233C
:1007E000009301930293039304934FF4007002F07B
:1007F000BBFA18BB1823059301230A930B930C90A3
:1008000060220D9202220F921093119328231293CB
:10081000072313931492159205A801F073F978B980
:100820000F2300930323019302900390049004216B
:10083000684601F077FC28B917B000BDFFF790FFBC
:10084000FFF78EFFFFF78CFF30B583B001F09BF808
:10085000FFF7BEFFFFF7EEFEFFF784FFFFF79CFFF9
:100860005E4B0193022300930023FA225C495D480A
:1008700003F042F9012808D04FF0500383F31188A8
:10088000BFF36F8FBFF34F8FFEE7574B01930223E8
:1008900000930023FA225549554803F02DF9012809
:1008A00008D04FF0500383F31188BFF36F8FBFF36D
:1008B0004F8FFEE74F4B0193022300930023FA2250
:1008C0004D494E4803F018F9012808D04FF0500365
:1008D00083F31188BFF36F8FBFF34F8FFEE7484B51
:1008E0000193022300930023FA224649464803F06D
:1008F00003F9012808D04FF0500383F31188BFF3A8
:100900006F8FBFF34F8FFEE7404B0193022300939D
:100910000023FA223E493F4803F0EEF8012808D0B0
:100920004FF0500383F31188BFF36F8FBFF34F8FE6
:10093000FEE7002201210A2002F05BFC364A10602B
:1009400048B1002204210A2002F053FC334A10600F
:1009500050B1002321E04FF0500383F31188BFF31F
:100960006F8FBFF34F8FFEE74FF0500383F3118873
:10097000BFF36F8FBFF34F8FFEE71C4601331D4659
:10098000274B00932B4601224FF4FA71254803F0C0
:100990002FFE254B43F824002B46032BEDDD234B84
:1009A0000093002301224FF47A71214803F020FEC6
:1009B000204B186001222049204805F017FC03F065
:1009C000CDF804F005F81E4A00211E4804F030F866
:1009D0001D4B186004F00EF8FEE700BFC8000020B1
:1009E000A8740008550A0008CC000020B474000860
:1009F00079100008C4000020C0740008990F000896
:100A0000C0000020CC740008090B0008BC000020C6
:100A1000D87400081D0C0008B8000020B4000020A5
:100A200091060008E4740008A4000020890600086C
:100A3000F0740008A00000209D000020D4000020D9
:100A400084780008C1060008D00000207047704775
:100A50007047000000B583B0254B009310E0254B94
:100A600002221A7000231A4619462348006803F030
:100A7000E1FB4FF0FF3300221146104603F08EFBDE
:100A800000234FF0FF3269461C48006802F0D5FB96
:100A90004FF0FF3301AA0021084603F07FFB019BC2
:100AA000DA68012A1BD11B78A3F13002312BD6D092
:100AB000022ADED052B90F4B01221A7000231A46C7
:100AC00019460F48006803F0B5FBD2E700234FF04A
:100AD000FF320C490948006802F0AFFBD0E7002361
:100AE0004FF0FF3207490548006802F0A6FBC7E750
:100AF000107500089C000020BC000020B4000020FD
:100B0000C00000200000002010B582B0314B0093DF
:100B10003DE031492046FFF77FFB90B12F49204649
:100B2000FFF77AFB88B12E492046FFF775FB80B1AD
:100B30002C492046FFF770FB78B9042000F09AFB9F
:100B40001CE0012000F096FB18E0022000F092FB70
:100B500014E0032000F08EFB10E000234FF0FF3282
:100B600021492248006802F068FB07E000234FF0AB
:100B7000FF321D491D48006802F05FFB00211C4B3D
:100B800019700B460A461B48006803F053FB4FF0F0
:100B9000FF3300221146104603F000FB00234FF004
:100BA000FF3269461148006802F047FB4FF0FF33FF
:100BB00001AA0021084603F0F1FA019CE368042B26
:100BC000D4D80D492046FFF727FB0028A1D100F01B
:100BD0003BFBD3E7B8750008387600083C76000880
:100BE000407600084476000800000020B400002091
:100BF0009C000020C800002030760008012909DD93
:100C00000378303B03EB83034078303800EB43003C
:100C1000C0B2704700783038FAE7000010B594B0E1
:100C2000A24B1393A24B1293A24B1193A24B10937E
:100C3000A24B0F93A24B0E93A24B0D93A24B0C937E
:100C4000A24B0B93A24B0A93A24B099380E14FF066
:100C5000FF3308AA0021084603F0A0FA08989E4B2B
:100C60001B78042B00F0BC801FD8022B34D0032B40
:100C700040F06381994B1B68012B7AD0022B00F066
:100C80008980002B40F05981C168FFF7B7FF8DF8CC
:100C90000C00924B01221A6000234FF0FF3210A982
:100CA0008F48006802F0C9FA47E1052B40F0458102
:100CB000C368012B40F036810378792B00F0148152
:100CC0006E2B00F0248100234FF0FF3285498448C9
:100CD000006802F0B2FA2DE1C368012B3ED103781F
:100CE000A3F13002322B22D0022A0EDC9AB1012A63
:100CF00029D1794B04221A7000234FF0FF320EA93C
:100D00007748006802F099FA17E1032A1BD1724B69
:100D100000221A7011E1704B03221A7000234FF069
:100D2000FF3211A96E48006802F087FA05E16A4BAC
:100D300005221A7000234FF0FF3209A968480068A5
:100D400002F07BFAF9E00023634A13704FF0FF32A0
:100D500064496348006802F070FAEEE000235E4ADE
:100D600013704FF0FF325F495D48006802F065FA8A
:100D7000E3E0C168FFF742FF8DF80D00574B0222F8
:100D80001A6000234FF0FF320FA95548006802F0A7
:100D900054FAD2E0C168FFF731FF8DF80E00002150
:100DA00003A800F027FA90B903A800F00DFA002379
:100DB0004FF0FF320AA94A48006802F03EFA00F0FC
:100DC000A7F90023444A1370444A1360B5E0002396
:100DD0004FF0FF3243494248006802F02EFAF0E734
:100DE0003E4B1B68022B3AD014DC3BB3012B40F086
:100DF000A480C168FFF702FF8DF80900374B03227A
:100E00001A6000234FF0FF320CA93548006802F049
:100E100014FA92E0032B40F09080C168FFF7EEFED9
:100E20008DF808002D4B02221A6000234FF0FF328C
:100E30000BA92B48006802F000FA7EE0C168FFF7BA
:100E4000DDFE8DF80A00254B01221A6000234FF0C9
:100E5000FF320DA92248006802F0EFF96DE0C16889
:100E6000FFF7CCFE8DF80B0002A9002000F0C2F9BC
:100E700090B902A800F0B4F900234FF0FF320AA99C
:100E80001748006802F0D9F900F042F90023124A2D
:100E90001370124A136050E000234FF0FF321149E3
:100EA0000F48006802F0C9F9F0E700BF4876000873
:100EB00094760008387700084C77000864770008BB
:100EC0007C77000890770008A4770008BC770008BA
:100ED000D0770008EC7700089C00002080010020FB
:100EE000B400002000000020264B186803F033FDFA
:100EF00000BB244B1C6802F085FE02464FF0FF3316
:100F0000009300230121204603F08EFB12E04FF0F6
:100F1000FF33009300231A4603211A48006803F0A8
:100F200083FB07E000234FF0FF32174917480068A2
:100F300002F083F9164B00221A70154B1B78002B18
:100F40007FF485AE1A4619461248006803F072F91C
:100F50004FF0FF3300221146104603F01FF90B4CEF
:100F600000234FF0FF3213A9206802F066F900F069
:100F7000CFF800234FF0FF3212A9206802F05DF98C
:100F8000DBE700BFA000002000000020B40000202C
:100F90009C000020C800002000B583B04FF0FF3255
:100FA00001A9084B186802F075FA019C2046FFF76A
:100FB0003DF94FF0FF3382B22146034804F0ABFF06
:100FC000ECE700BFB4000020D400002030B583B0AF
:100FD0000546114B186802F064FBD0B1002403E011
:100FE0009DF807300A2B0ED000220DF107010A4BA5
:100FF000186802F04FFA0128F2D1631C9DF807200F
:101000002A55DCB2ECE7013C00202855EC6003B027
:1010100030BD4FF0FF30FAE7B800002010B50446AD
:10102000FFF7D4FF104B1B78012B14D007D82BB936
:10103000032221460D48006803F0FCF810BD023B76
:10104000DBB2032BFAD800230322214608480068AC
:1010500003F0F0F8F2E70023032221460548006878
:1010600003F0E8F8EAE700BF9C000020C800002079
:10107000BC000020C000002000B585B04FF0FF3359
:1010800000221146104603F089F80128F6D168467F
:10109000FFF7C4FFF2E7000030B589B000240794E1
:1010A00002A902944C608C60CC600C61134D224606
:1010B000284604F002FA224607A9284604F023FA3B
:1010C0009DF80B30BBB90E4B00939DF80A309DF88C
:1010D00009209DF808100B4805F0A0F99DF81F3075
:1010E00003F5FA639DF81E209DF81D10064805F0D3
:1010F00095F909B030BD054BE6E700BF5C01002063
:101100002878000858780008307800082C78000803
:1011100030B58BB00024099404A904944C608C6011
:10112000CC600C611D4D2246284604F0C6F92246CB
:1011300009A9284604F0E7F99DF8133063BB184964
:101140009DF811309DF812200291019200939DF8B4
:101150001030144A1449154805F072F9144C002354
:101160004FF0FF321349206802F067F89DF82730EE
:1011700003F5FA6300939DF826309DF825200E496B
:101180000E4805F05DF900234FF0FF320C4920684E
:1011900002F053F80BB030BD0A49D1E75C010020E2
:1011A000287800084078000854780008AC01002036
:1011B000B4000020080000203078000884010020DE
:1011C000040000202C78000808B501460022C270F7
:1011D000C2600261014804F0ABF808BD5C01002068
:1011E00008B501460022024804F00AF908BD00BF14
:1011F0005C01002040B102780C2A14D842783B2AC6
:1012000013D883783B2B12D899B18B781F2B12D827
:101210000B78072B11D8CB78632B10D84B780C2B7D
:101220000FD800207047012070470120704701202F
:101230007047084670470120704701207047012021
:10124000704701207047000010B582B000240BE009
:10125000074B53F824004FF0FF33009300231A4646
:10126000032103F0E1F90134032CF1DD02B010BDDC
:10127000A400002010B582B00446FFF7E5FF601E11
:10128000084B53F820301C4602F0BCFC02464FF0DD
:10129000FF33009300230121204603F0C5F902B07B
:1012A00010BD00BFA400002008B500224FF400715B
:1012B0004FF0904001F0FCFC00224FF480714FF0A1
:1012C000904001F0F5FC00224FF480614FF0904017
:1012D00001F0EEFC00224FF400614FF0904001F06D
:1012E000E7FC08BD08B501224FF400714FF09040B3
:1012F00001F0DEFC01224FF480714FF0904001F0CC
:10130000D7FC01224FF480614FF0904001F0D0FCF7
:1013100001224FF400614FF0904001F0C9FC08BD7C
:1013200008B501224FF480714FF0904001F0C0FCED
:1013300000224FF400714FF0904001F0B9FC0122FF
:101340004FF480614FF0904001F0B2FC00224FF466
:1013500000614FF0904001F0ABFC08BD08B50022E1
:101360004FF480714FF0904001F0A2FC01224FF445
:1013700000714FF0904001F09BFC00224FF480611F
:101380004FF0904001F094FC01224FF400614FF0C7
:10139000904001F08DFC08BD38B5054600240CE0F6
:1013A0004FF48071A14045FA04F202F0010289B2C3
:1013B0004FF0904001F07CFC0134032CF0DD38BD8F
:1013C00008B5064A136883F001011160012B02D0B1
:1013D000FFF76AFF08BDFFF785FFFBE7100000205D
:1013E00008B5064A136883F001011160012B02D091
:1013F000FFF7B4FF08BDFFF793FFFBE70C000020E9
:1014000008B5064B1868421C1A6000F0030001235F
:1014100003FA00F0FFF7C0FF08BD00BFD8010020AD
:1014200008B5064B1868421C1A6000F00300082338
:1014300043FA00F0FFF7B0FF08BD00BFD401002061
:10144000FEE7FEE7FEE7FEE7FEE7704708B5024865
:1014500004F0B8F808BD00BFD400002008B5024869
:1014600000F036F908BD00BFDC01002000B583B0F4
:101470000D4B1A6E42F001021A661A6E02F001025A
:101480000092009A9A6D42F080529A659B6D03F02B
:1014900080530193019B00220F216FF0010001F0A6
:1014A00003FD03B000BD00BF0010024010B5A2B0A4
:1014B000044688220021684605F028F822680D4B72
:1014C0009A4201D022B010BD4FF4003300934FF484
:1014D00000732193684601F0A5F838B9064AD2F89E
:1014E000903043F40043C2F89030EBE7FFF738F94F
:1014F000F4E700BF002800400010024010B5AAB079
:10150000044600212591269127912891299188222E
:1015100003A804F0FBFF22681C4B9A4201D02AB0BA
:1015200010BD0223039303A801F07CF850BB184BB5
:101530009A6D42F400329A659A6D02F4003201927B
:10154000019ADA6C42F00102DA64DB6C03F0010309
:101550000293029B0C2325930223269300232793B7
:10156000032328930723299325A94FF0904001F0E6
:1015700091FA00220621262001F096FC262001F097
:10158000A3FCCCE7FFF7ECF8D1E700BF0044004034
:101590000010024030B589B00446224B9A6D42F0EB
:1015A00010029A659B6D03F010030193019B02A941
:1015B00003A800F0A5FE069BCBB900F07DFE034614
:1015C000194AA2FB03239B0C013B1848184A0260EE
:1015D00040F2E732C26043600023036183608361AD
:1015E00000F09EF9054630B1284609B030BD00F044
:1015F00063FE4300E4E70D4800F020F805460028AC
:10160000F2D1362001F060FC0F2C02D901231D46D7
:10161000EAE700222146362001F046FC054B1C601B
:10162000E2E700BF0010024083DE1B43DC01002024
:1016300000100040180000207047000090F83D3076
:10164000012B36D1022380F83D300268D36843F085
:101650000103D36003681A4A93421CD0B3F1804F50
:1016600019D0A2F59432934215D002F580629342CC
:1016700011D002F5806293420DD002F5943293426C
:1016800009D002F54062934205D01A6842F0010287
:101690001A600020704799680A4A0A40062A0AD050
:1016A000B2F5803F09D01A6842F001021A600020AA
:1016B000704701207047002070470020704700BF2E
:1016C000002C0140070001007047704770477047C9
:1016D00070B504460368DE681D6915F0020F10D06E
:1016E00016F0020F0DD06FF002021A61012303778A
:1016F00003689B6913F0030F67D0FFF7E6FF002331
:10170000237715F0040F12D016F0040F0FD02368C2
:101710006FF004021A610223237723689B6913F494
:10172000407F58D02046FFF7D0FF0023237715F0E5
:10173000080F12D016F0080F0FD023686FF00802C0
:101740001A61042323772368DB6913F0030F49D060
:101750002046FFF7BAFF0023237715F0100F12D0B1
:1017600016F0100F0FD023686FF010021A610823D3
:1017700023772368DB6913F4407F3AD02046FFF7D4
:10178000A4FF0023237715F0010F02D016F0010FFC
:1017900036D115F0800F02D115F4005F02D016F09B
:1017A000800F35D115F4807F02D016F0800F37D12D
:1017B00015F0400F02D016F0400F39D115F0200F70
:1017C00002D016F0200F3BD170BDFFF77DFF204601
:1017D000FFF77CFF93E72046FFF776FF2046FFF7F1
:1017E00075FFA2E72046FFF76FFF2046FFF76EFF69
:1017F000B1E72046FFF768FF2046FFF767FFC0E725
:1018000023686FF001021A612046FEF79DFFC0E7D2
:1018100023686FF402521A61204600F0B2F8C1E763
:1018200023686FF480721A61204600F0ABF8BFE7BE
:1018300023686FF040021A612046FFF748FFBDE7BA
:1018400023686FF020021A61204600F099F8BBE788
:101850000368324A904212D0B0F1804F0FD0A2F507
:10186000943290420BD002F58062904207D002F58C
:101870008062904203D002F59432904203D123F06B
:1018800070034A681343254A90421ED0B0F1804F3E
:101890001BD0A2F59432904217D002F5806290429C
:1018A00013D002F5806290420FD002F5943290423C
:1018B0000BD002F54062904207D002F58062904260
:1018C00003D002F58062904203D123F44073CA68CA
:1018D000134323F080034A6913438A68C2620A688B
:1018E00082620E4A90420FD002F5006290420BD005
:1018F00002F54062904207D002F58062904203D028
:1019000002F58062904201D10A690263026842F0E6
:10191000040202600122426103607047002C014012
:1019200060B310B5044690F83D3013B3022384F839
:101930003D30214651F8040BFFF78AFF012384F85C
:10194000483084F83E3084F83F3084F8403084F8E2
:10195000413084F8423084F8433084F8443084F8CD
:10196000453084F8463084F8473084F83D30002014
:1019700010BD80F83C30FFF75FFED7E701207047CD
:1019800070477047704710B5032001F07BFA0F20B5
:10199000FFF700FE18B101231C46204610BD044687
:1019A000FFF764FDF9E70000034B1B78034A116859
:1019B0000B441360704700BF140000202802002071
:1019C000014B1868704700BF2802002030B583B073
:1019D0000546204B9B6D13F0805F0BD001F0BCF9E6
:1019E000B0F5007F17D0802D1FD82DD0702D2DD0B1
:1019F00000211BE0174CA36D43F08053A365A36D3A
:101A000003F080530193019B01F0A6F9A36D23F02D
:101A10008053A365E4E7802D03D9A02D03D90221CB
:101A200004E0002102E0012100E003210A4A1368DA
:101A300023F007030B431360136803F007038B4283
:101A400006D1002003B030BD0221EFE70121EDE710
:101A50000120F7E70010024000200240254A936869
:101A6000D26802F0030213F00C0309D00C2B05D04E
:101A7000042B3BD0082B3BD000200FE0012AF7D1EC
:101A80001C4A126812F0080F0CD11A4AD2F894209E
:101A9000C2F30322184951F8220013B10C2B06D0CF
:101AA00000207047134A1268C2F30312F2E7114B89
:101AB000DB6803F00303022B16D0032B00D10F4881
:101AC0000C49CA68C2F302120132CB68C3F3062381
:101AD00000FB03F3B3FBF2F3C868C0F341600130CD
:101AE0004000B3FBF0F070470548E9E70448704751
:101AF0000248704700100240A878000800127A00DF
:101B00000024F400002800F0F382F0B583B004460E
:101B1000964B9D6805F00C05DB6803F003031E4639
:101B2000036813F0100F5AD0E5B10C2D18D0A3693B
:101B3000002B00F0BB808D4A136843F00103136053
:101B4000FFF73EFF0746894B1B6813F0020F40F07A
:101B50009A80FFF735FFC01B0228F4D90320D2E298
:101B6000012EE4D1814B1B6813F0020F03D0A3694F
:101B7000002B00F0BF82206A7C4B1B6813F0080F1B
:101B80005BD07A4B1B6803F0F00398425CD8774B2C
:101B90001A6842F008021A601A6822F0F002216AFC
:101BA0000A431A605A6822F47F42E16942EA01223C
:101BB0005A60002D60D0FFF751FF6C4B9B68C3F358
:101BC00003136B4AD35C03F01F03D840694B1860C2
:101BD000694B1868FFF7DEFC002840F09482236808
:101BE00013F0010F00F08180082D75D00C2D71D0FD
:101BF0006368B3F5803F00F09780B3F5A02F00F045
:101C000099805A4B1A6822F480321A601A6822F4BA
:101C100080221A606368002B00F09980FFF7D0FEE5
:101C20000746524B1B6813F4003F5ED1FFF7C8FE16
:101C3000C01B6428F5D9032065E24C4BD3F89430DF
:101C40001B0903F0F003A0E7FFF7C0FE002840F0F7
:101C50005382464B1A6842F008021A601A6822F052
:101C6000F002216A0A431A605A6822F47F42E1694D
:101C700042EA01225A609EE7206AFFF7A7FE002889
:101C800099D001203FE2394B1A6842F008021A60ED
:101C90001A6822F0F002216A0A431A605A6822F494
:101CA0007F42E16942EA01225A6098E72F4A1368AD
:101CB00023F001031360FFF783FE07462B4B1B68DD
:101CC00013F0020F8BD0FFF77BFEC01B0228F5D963
:101CD000032018E2032E8BD1244B1B6813F4003F22
:101CE00003D06368002B00F00982236813F0020F11
:101CF00057D0042D44D00C2D40D0E368002B76D073
:101D00001A4A136843F480731360FFF759FE0646BE
:101D1000164B1B6813F4806F60D1FFF751FE801BD8
:101D20000228F5D90320EEE1104A136843F480330A
:101D300013606FE703F18043A3F53C331A6842F464
:101D400080221A601A6842F480321A6062E7FFF754
:101D500037FE0746054B1B6813F4003FC5D0FFF75D
:101D60002FFEC01B6428F5D90320CCE100100240EF
:101D7000E07800081C00002018000020022EBCD1D2
:101D8000A44B1B6813F4806F03D0E368002B00F0B2
:101D9000B781A04A536823F0F853216943EA0163ED
:101DA0005360236813F0080F4CD063699BB3994AC2
:101DB000D2F8943043F00103C2F89430FFF700FEEC
:101DC0000646944BD3F8943013F0020F3AD1FFF744
:101DD000F7FD801B0228F4D9032094E18D4A536853
:101DE00023F0F853216943EA01635360D9E7894A34
:101DF000136823F480731360FFF7E2FD0646854BFA
:101E00001B6813F4806FCCD0FFF7DAFD801B02282B
:101E1000F5D9032077E17F4AD2F8943023F001030B
:101E2000C2F89430FFF7CCFD06467A4BD3F89430D5
:101E300013F0020F06D0FFF7C3FD801B0228F4D970
:101E4000032060E1236813F0040F7CD0714B9B6D7D
:101E500013F0805F37D16F4B9A6D42F080529A65D4
:101E60009B6D03F080530193019B01231F466A4B36
:101E70001B6813F4807F29D0A368012B3AD0052B6F
:101E800040D0644BD3F8902022F00102C3F8902098
:101E9000D3F8902022F00402C3F89020A368002B0E
:101EA0003ED0FFF78DFD06465A4BD3F8903013F025
:101EB000020F47D1FFF784FD801B41F2883398421F
:101EC000F2D903201FE100231F46D0E7524A1368CE
:101ED00043F480731360FFF773FD06464E4B1B6897
:101EE00013F4807FC8D1FFF76BFD801B0228F5D962
:101EF000032008E1474AD2F8903043F00103C2F8CA
:101F00009030CBE7434BD3F8902042F00402C3F863
:101F10009020D3F8902042F00102C3F89020BDE752
:101F2000FFF74EFD06463B4BD3F8903013F0020FFF
:101F300008D0FFF745FD801B41F288339842F2D963
:101F40000320E0E0EFB9A36A002B00F0DB80022B56
:101F50001DD00C2D00F0DD802E4A136823F0807315
:101F60001360FFF72DFD04462A4B1B6813F0007F1A
:101F700000F0B780FFF724FD001B0228F4D90320EE
:101F8000C1E0244A936D23F080539365DBE7214B36
:101F9000DB6803F00301E26A91420FD00C2D00F0E0
:101FA000B4801C4B1B6813F0806F40F0B080194B5D
:101FB0001B6813F0805F31D00120A4E003F07002B1
:101FC000216B0139B2EB011FE8D103F4FE42616BD2
:101FD000B2EB012FE2D103F40031A26B073A18BF34
:101FE00001229142DAD103F4C001E26B5208013AB6
:101FF000B1EB425FD2D103F0C063226C5208013AC8
:10200000B3EB426FCAD1034B1B6813F0007F4ED075
:10201000002078E000100240007000403E4A136843
:1020200023F080731360FFF7CBFC05463A4B1B6827
:1020300013F0007F06D0FFF7C3FC401B0228F5D940
:10204000032060E0344AD36834491940E36A206BC6
:10205000013843EA0013606B43EA0023E06B400859
:10206000013843EA4053206C4008013843EA40639A
:10207000A06B000943EA40431943D160136843F061
:1020800080731360D36843F08073D360FFF798FCCC
:102090000446214B1B6813F0007F06D1FFF790FC2C
:1020A000001B0228F5D903202DE000202BE01A4B5D
:1020B0001A6842F080721A60DA6842F08072DA6060
:1020C000FFF77EFC0446144B1B6813F0007F06D11B
:1020D000FFF776FC031B022BF5D9032013E0002049
:1020E00011E00D4AD1680E4B0B40D36000200AE08E
:1020F00001207047012006E0012004E0012002E0F9
:10210000012000E0184603B0F0BD0120FBE70120EC
:10211000F9E70120F7E700BF001002408C809DF92D
:10212000FCFFEEFE002800F0AF8070B50D460446BF
:10213000594B1B6803F007038B420BD2564A1368B6
:1021400023F007030B431360136803F007038B426C
:1021500040F09C80236813F0020F0CD0A2684F4B14
:102160009B6803F0F0039A4205D94C498B6823F031
:10217000F0031A438A60236813F0010F39D06368B3
:10218000032B09D0022B26D063BB444A126812F0FD
:10219000020F06D1012076E0404A126812F0007F5B
:1021A00076D03E498A6822F0030213438B60FFF722
:1021B00007FC0646394B9B6803F00C036268B3EBDF
:1021C000820F16D0FFF7FCFB801B41F28833984248
:1021D000F0D9032057E0314A126812F4003FE0D1F1
:1021E000012050E02D4A126812F4806FD9D10120ED
:1021F00049E0236813F0020F0CD0A268274B9B68BC
:1022000003F0F0039A4205D224498B6823F0F003CF
:102210001A438A60204B1B6803F00703AB420AD9BC
:102220001D4A136823F007032B431360136803F060
:102230000703AB422ED1236813F0040F06D0174AD0
:10224000936823F4E063E1680B439360236813F021
:10225000080F07D0114A936823F46053216943EAB9
:10226000C1039360FFF7FAFB0C4B9B68C3F30313A6
:102270000B4AD35C03F01F03D8400A4B18600A4B8B
:102280001868FFF787F970BD012070470120FAE751
:102290000120F8E70120F6E700200240001002408C
:1022A000E07800081C00002018000020014B18688E
:1022B000704700BF1C00002008B5FFF7F7FF054B73
:1022C0009B68C3F30223044AD35C03F01F03D84086
:1022D00008BD00BF00100240D878000808B5FFF71D
:1022E000E5FF054B9B68C3F3C223044AD35C03F0AC
:1022F0001F03D84008BD00BF00100240D878000876
:102300000F2303600B4B9A6802F0030242609A6845
:1023100002F0F00282609A6802F4E062C2609B6898
:10232000DB0803F4E0630361034B1B6803F007035E
:102330000B6070470010024000200240F8B50446D0
:102340000F465F4BDB6813F0030F1BD05C4BDB6861
:1023500003F003030268934203D001231D4628467D
:10236000F8BD002A00F0A580554BDB68C3F30213CB
:1023700001334268934202D001231D46EFE7002358
:102380001D461AE00368022B59D0032B5FD0012BA6
:1023900040F092804A4A126812F0020F64D0484816
:1023A000C26822F073026168013943EA01131343E2
:1023B000C36000231D46002DD1D1414A136823F08C
:1023C00080631360FFF7FCFA06463D4B1B6813F071
:1023D000006F06D0FFF7F4FA831B022BF5D9032315
:1023E0001D46002DBBD1002F41D135490B6923F487
:1023F0001F3323F44073A068E2681209520442EAD2
:10240000002213430B612E4A136843F0806313606C
:10241000FFF7D6FA06462A4B1B6813F0006F06D169
:10242000FFF7CEFA801B0228F5D903231D46002DA5
:1024300095D1234A1369A1690B4313618FE7204AA1
:10244000126812F4806FAAD101231D4687E71C4A47
:10245000126812F4003FA2D1194A126812F4802FB8
:102460009DD101231D467AE701231D46A3E7012FD5
:102470000FD01348026922F0C06222F4FE42A16824
:1024800063695B08013B5B0643EA01231A4302616F
:10249000B9E70B48026922F4C00222F4FE42A168A7
:1024A00023695B08013B5B0543EA01231A43026190
:1024B000A9E701231D4652E701231D464FE700BF50
:1024C00000100240F8B504460F46554BDB6813F088
:1024D000030F1BD0524BDB6803F0030302689342E7
:1024E00003D001231D462846F8BD002A00F0928043
:1024F0004B4BDB68C3F3021301334268934202D0B3
:1025000001231D46EFE700231D4619E00368022B57
:1025100058D0032B5ED0012B7FD1414A126812F0B4
:10252000020F64D03E48C26822F07302616801392C
:1025300043EA01131343C36000231D46002DD2D18B
:10254000374A136823F080531360FFF739FA0646C1
:10255000334B1B6813F0005F06D0FFF731FA831B83
:10256000022BF5D903231D46002DBCD1002F41D1EC
:102570002B494B6923F41F3323F44073A068E268AE
:102580001209520442EA002213434B61244A1368A1
:1025900043F080531360FFF713FA0646204B1B6885
:1025A00013F0005F06D1FFF70BFA801B0228F5D964
:1025B00003231D46002D96D1194A536961690B43C7
:1025C000536190E7164A126812F4806FAAD1012372
:1025D0001D4688E7124A126812F4003FA2D1104A41
:1025E000126812F4802F9DD101231D467BE7012341
:1025F0001D46A3E70A48426922F0C06222F4FE4267
:10260000A16823695B08013B5B0643EA01231A4387
:102610004261BBE701231D4665E701231D4662E7D2
:10262000001002402DE9F04182B00446036813F423
:10263000006F38D0436EB3F5000F18D00DD84BB3F0
:10264000B3F5800F05D100212030FFF73BFF064690
:1026500025E001231F461E4628E0B3F5400F02D1B6
:1026600000231E460AE001231F461E461EE0644A60
:10267000D36843F48033D36000231E46604AD2F807
:10268000883023F44003616E0B43C2F88830002386
:102690001F460BE019460430FFF750FE0646002E99
:1026A000ECD0374602E000231F461E46236813F491
:1026B000805F32D0A36EB3F1007F21D00ED82BB350
:1026C000B3F1807F06D1002104F12000FFF7FAFE6C
:1026D000064606E001231F461E461EE0B3F1407F7A
:1026E0000AD1CEB9464AD2F8883023F04073A16EA1
:1026F0000B43C2F8883010E001231F461E460CE051
:102700003F4AD36843F48033D360EAE71946201D7B
:10271000FFF714FE0646E4E73746236813F4003F4C
:1027200077D0374B9B6D13F0805F52D1344B9A6D4D
:1027300042F080529A659B6D03F080530193019B98
:10274000012398462F4A136843F480731360FFF700
:1027500037F905462B4B1B6813F4807F06D1FFF732
:102760002FF9401B0228F5D903231E46002E4BD11A
:1027700006F1804303F50433D3F8903013F440732B
:1027800019D0D4F884209A4212D01D4AD2F8903041
:1027900023F44073D2F8901041F48031C2F89010C5
:1027A000D2F8901021F48031C2F89010C2F8903025
:1027B00013F0010F10D1002E40F02981104AD2F8F9
:1027C000903023F44073D4F884100B43C2F8903057
:1027D0001BE000239846B5E7FFF7F2F80546084BE3
:1027E000D3F8903013F0020FE5D1FFF7E9F8401B62
:1027F00041F288339842F2D903231E46DBE700BF3B
:10280000001002400070004037464346002B40F065
:102810000081236813F0010F08D09D4AD2F8883058
:1028200023F00303A16B0B43C2F88830236813F035
:10283000020F08D0964AD2F8883023F00C03E16BDF
:102840000B43C2F88830236813F0040F08D0904A75
:10285000D2F8883023F03003216C0B43C2F8883063
:10286000236813F0080F08D0894AD2F8883023F083
:10287000C003616C0B43C2F88830236813F0100F5B
:1028800008D0834AD2F8883023F44073A16C0B43FC
:10289000C2F88830236813F0200F08D07C4AD2F8A1
:1028A000883023F44063E16C0B43C2F8883023681E
:1028B00013F4007F08D0764AD2F8883023F44023FE
:1028C000E16D0B43C2F88830236813F4806F08D0A1
:1028D0006F4AD2F8883023F44013216E0B43C2F8BC
:1028E0008830236813F0400F08D0694AD2F8883046
:1028F00023F44053216D0B43C2F88830236813F052
:10290000800F08D0624AD2F8883023F44043616DCA
:102910000B43C2F88830236813F4807F08D05C4AE8
:10292000D2F8883023F44033A16D0B43C2F88830CD
:10293000236813F4005F0FD0554AD2F8883023F093
:102940004063E16E0B43C2F88830E36EB3F1006F71
:1029500065D0B3F1806F67D0236813F4002F0FD0D8
:102960004B4AD2F8883023F04063216F0B43C2F802
:102970008830236FB3F1006F5ED0B3F1806F60D009
:10298000236813F4802F0FD0414AD2F8883023F007
:102990004063616F0B43C2F88830636FB3F1006F1F
:1029A00057D0B3F1806F59D0236813F4804F0FD004
:1029B000374AD2F8883023F04053A16F0B43C2F856
:1029C0008830A36FB3F1805F50D0B3F1005F55D072
:1029D000236813F4004F08D02D4AD2F8883023F032
:1029E0008043E16F0B43C2F88830236813F4803FC3
:1029F00009D0274AD2F8883023F00043D4F8801059
:102A00000B43C2F88830384602B0BDE8F081374643
:102A1000FBE61F4A936D23F080539365F9E6D36874
:102A200043F48013D36097E70121201DFFF786FC54
:102A3000002891D007468FE7D36843F48013D36012
:102A40009EE70121201DFFF779FC002898D007465A
:102A500096E7D36843F48013D360A5E70121201DD6
:102A6000FFF76CFC00289FD007469DE70221201D40
:102A7000FFF764FC0028ABD00746A9E7022104F168
:102A80002000FFF71FFD0028A2D00746A0E700BFE7
:102A90000010024070B582B0002374E085684FEAF0
:102AA000430E032404FA0EF425EA0405CC6804FA64
:102AB0000EF42C438460446824EA0C044D68C5F38A
:102AC000001E0EFA03FE4EEA0404446070E0C46A7D
:102AD00024EA0C04C5F3C00E0EFA03FE4EEA040409
:102AE000C4626AE0DD08083550F8254003F0070CA1
:102AF0004FEA8C0C4FF00F0E0EFA0CFE24EA0E0E6D
:102B00000C6904FA0CF444EA0E0440F825406FE026
:102B1000062400E0002404FA0EF42C430CF1020C0D
:102B20005F4D45F82C405F4CA4686FEA020C24EA24
:102B300002054E6816F4801F01D042EA0405594C84
:102B4000A560E4680CEA04054E6816F4001F01D085
:102B500042EA0405534CE56064680CEA04054E68DB
:102B600016F4003F01D042EA04054E4C656024682B
:102B70000CEA04054E6816F4803F01D042EA0405D1
:102B8000484A156001330A6832FA03F400F086807F
:102B90004FF0010C0CFA03FC1CEA0202F2D04C6864
:102BA00004F0030E0EF1FF3EBEF1010F7FF676AF8B
:102BB0004D6805F00304032C89D04C6804F0030C25
:102BC000BCF1030F0DD0C4685D004FF0030C0CFA8C
:102BD00005FC24EA0C048E6806FA05FC4CEA0404A1
:102BE000C4604C6804F0030CBCF1020F3FF47AAFF0
:102BF00005685C004FF0030C0CFA04FC25EA0C0E8F
:102C00004D6805F0030C0CFA04FC4CEA0E04046059
:102C10004C6814F4403FB5D0234C256E45F00105B7
:102C20002566246E04F001040194019C4FEA930C84
:102C30000CF102051A4C54F8255003F0030E4FEA2C
:102C40008E0E0F2404FA0EF425EA0405B0F1904F1D
:102C50003FF460AF154CA04216D004F58064A0424A
:102C600014D004F58064A04212D004F58064A04220
:102C700010D004F58064A0420ED004F58064A04218
:102C80003FF446AF072446E7012444E7022442E725
:102C9000032440E704243EE705243CE702B070BD6E
:102CA0000000014000040140001002400004004800
:102CB0000AB18161704781627047034610B390F892
:102CC0002520022A06D00422C263002280F8242094
:102CD0000120704701680A6822F001020A60016859
:102CE0000A6822F00E020A60426C02F01C02006CBC
:102CF000012101FA02F2426083F82510002083F8D6
:102D0000240070470120704708B590F82530022B49
:102D100003D00423C363012008BD0268136823F0B5
:102D2000010313600268136823F00E031360436C01
:102D300003F01C03016C012202FA03F34B6080F8DC
:102D40002520002380F82430836B13B1984700209E
:102D5000E2E71846E0E70000024B186800F4C060A4
:102D6000704700BF00700040B0F5007F0FD01F4BD0
:102D70001B6803F4C063B3F5806F34D01B4A13683B
:102D800023F4C06343F48063136000207047174B43
:102D90001B6803F4C063B3F5007F20D0134A1368A7
:102DA00023F4C06343F400731360114B1B68322299
:102DB00002FB03F30F4AA2FB03239B0C013300E049
:102DC000013B0A4A526912F4806F01D0002BF7D1FF
:102DD000064B5B6913F4806F03D10020704700201D
:102DE0007047032070470020704700BF007000400C
:102DF0001C00002083DE1B43002807DB00F01F02BD
:102E0000400901239340024A42F82030704700BF36
:102E100000E100E0002808DB0901C9B200F16040D0
:102E200000F5614080F80013704700F00F000901C1
:102E3000C9B2014B1954704714ED00E000B500F021
:102E40000700A0F1030CBCF1040F07D8C0F1070E76
:102E50000430062806D84FF0000C03E04FF0040EB3
:102E60004FF0000C4FF0FF3303FA0EF021EA00019F
:102E700001FA0CF103FA0CF322EA030241EA020020
:102E800000BD0000074AD36823F4E0631B041B0C59
:102E9000000200F4E060034343F0BF6343F40033F7
:102EA000D360704700ED00E010B50446054BD868CC
:102EB000C0F30220FFF7C2FF01462046FFF7AAFF3A
:102EC00010BD00BF00ED00E008B5FFF795FF08BD9D
:102ED000034AD2F8883043F47003C2F88830704750
:102EE00000ED00E000F1080343604FF0FF32826024
:102EF000C3600361002303607047002303617047D0
:102F000043684B609A688A60516099600861036801
:102F100001330360704710B402460846D1F800C080
:102F2000BCF1FF3F11D002F1080319465B681C6831
:102F30006445FAD94B6843609860816048600261DB
:102F400013680133136010BC70471169F2E703691D
:102F5000416882688A60416851605A68824206D03E
:102F6000002202611A68013A1A6018687047826884
:102F70005A60F5E710B5044601F074FFA26BE36BED
:102F80009A4204D0002401F08FFF204610BD012496
:102F9000F9E710B5044601F065FFA36B2BB90123D7
:102FA0001C4601F081FF204610BD00231C46F8E7B7
:102FB00070B504461646856B026C5AB903681BB19E
:102FC00000200135A56370BD806801F09FF80023E3
:102FD000A360F6E76EB9406803F013FB6368226CE8
:102FE00013446360A268934219D323686360304638
:102FF000E7E7C06803F005FBE368226C51429B1AC7
:10300000E3602268934202D2A3680B44E360022E7D
:1030100001D00020D5E725B1013D0020D1E73046A1
:10302000CFE72846CDE70346026C6AB110B50846E3
:10303000D9681144D9609C68A14201D31968D9604C
:10304000D96803F0DEFA10BD704738B5054601F0C7
:1030500009FF95F8454064B201E0013C64B2002CE0
:103060000ADD6B6A43B105F1240000F0A1FF0028DE
:10307000F3D001F035F8F0E7FF2385F8453001F093
:1030800013FF01F0EFFE95F8444064B201E0013C0B
:1030900064B2002C0ADD2B6943B105F1100000F089
:1030A00087FF0028F3D001F01BF8F0E7FF2385F835
:1030B000443001F0F9FE38BD38B5E0B10D460446A4
:1030C00001F0D0FE2368E26B216C01FB0230A060AE
:1030D0000020A0636360013A02FB0133E360FF2339
:1030E00084F8443084F84530FDB9236963B901F0B0
:1030F000DBFE012038BD4FF0500383F31188BFF38E
:103100006F8FBFF34F8FFEE704F1100000F050FF08
:103110000028ECD04FF0E0234FF08052C3F8042D8C
:10312000BFF34F8FBFF36F8FE1E704F11000FFF79C
:10313000D9FE04F12400FFF7D5FED8E738B51D46C7
:10314000049C0B4649B92460E063236401212046B6
:10315000FFF7B2FF84F84C5038BD2260F4E740B965
:103160004FF0500383F31188BFF36F8FBFF34F8F7E
:10317000FEE710B584B01C46844653B192B189B9BC
:103180004FF0500383F31188BFF36F8FBFF34F8F5E
:10319000FEE74FF0500383F31188BFF36F8FBFF347
:1031A0004F8FFEE76AB150230393039B502B13D03C
:1031B0004FF0500383F31188BFF36F8FBFF34F8F2E
:1031C000FEE70029EFD04FF0500383F31188BFF3DF
:1031D0006F8FBFF34F8FFEE7039B012384F84630C8
:1031E00000949DF818306046FFF7A8FF204604B011
:1031F00010BD40B94FF0500383F31188BFF36F8FB8
:10320000BFF34F8FFEE7F0B583B0164604460D4678
:1032100001FB00F0503001F0F3FC0246074648B1D4
:10322000002380F84630009033465032294620462D
:10323000FFF784FF384603B0F0BDF0B585B00192CA
:1032400088B10F461D460446B1B1022D20D1E36B73
:10325000012B1DD04FF0500383F31188BFF36F8F04
:10326000BFF34F8FFEE74FF0500383F31188BFF396
:103270006F8FBFF34F8FFEE7036C002BE5D04FF04D
:10328000500383F31188BFF36F8FBFF34F8FFEE7B7
:1032900000F02CFF064658B9019B002B48D04FF098
:1032A000500383F31188BFF36F8FBFF34F8FFEE797
:1032B00000263DE02A4639462046FFF779FE636A3C
:1032C0007BB948B14FF0E0234FF08052C3F8042D92
:1032D000BFF34F8FBFF36F8F01F0E6FD012005B004
:1032E000F0BD04F1240000F063FE0028F4D04FF09C
:1032F000E0234FF08052C3F8042DBFF34F8FBFF38C
:103300006F8FE9E701F0D0FD0020E8E702A800F0A8
:1033100097FE012619E0002384F8443021E00023C1
:1033200084F8453023E02046FFF78FFE00F002FDD1
:1033300001F098FDA26BE36B9A42BBD3022DB9D08A
:10334000019B002BDED0002EE0D001F0ADFD00F09F
:1033500051FC01F087FD94F8442052B2B2F1FF3FD6
:10336000D9D094F8452052B2B2F1FF3FD7D001F046
:103370009BFD01A902A800F06FFED8B92046FFF717
:10338000F9FD0028CFD0019904F1100000F0DAFD1A
:103390002046FFF75AFE00F0CDFC0028C8D14FF0C0
:1033A000E0234FF08052C3F8042DBFF34F8FBFF3DB
:1033B0006F8FBDE72046FFF748FE00F0BBFC002002
:1033C0008DE72DE9F84390B10F4690461E4604461E
:1033D000B1B1022E20D1E36B012B1DD04FF0500371
:1033E00083F31188BFF36F8FBFF34F8FFEE74FF06A
:1033F000500383F31188BFF36F8FBFF34F8FFEE746
:10340000036C002BE5D04FF0500383F31188BFF31A
:103410006F8FBFF34F8FFEE701F04CFEEFF3118388
:103420004FF0500282F31188BFF36F8FBFF34F8FBD
:103430009946A26BE36B9A4206D3022E04D0002079
:1034400089F31188BDE8F88394F845305DB2A36B29
:10345000324639462046FFF7ABFDB5F1FF3F06D0B7
:103460002B4601335BB284F845300120E8E7636AFC
:103470000BB90120E4E704F1240000F099FD28B124
:1034800043462BB10120C8F80000D9E70120D7E757
:103490000120D5E7F0B585B0019290B10F46044602
:1034A000C1B100F023FE064600BB019B002B5ED09D
:1034B0004FF0500383F31188BFF36F8FBFF34F8F2B
:1034C000FEE74FF0500383F31188BFF36F8FBFF314
:1034D0004F8FFEE7036C002BE3D04FF0500383F3D4
:1034E0001188BFF36F8FBFF34F8FFEE700263EE0DA
:1034F00039462046FFF797FD013DA563236923B9AF
:1035000001F0D2FC012005B0F0BD04F1100000F084
:103510004FFD0028F4D04FF0E0234FF08052C3F865
:10352000042DBFF34F8FBFF36F8FE9E701F0BCFCB1
:103530002846E8E702A800F083FD012621E00023E9
:1035400084F8443029E0002384F845302BE02046FD
:10355000FFF77BFD00F0EEFB09E02046FFF775FD6D
:1035600000F0E8FB2046FFF714FD00283FD101F0F2
:1035700079FCA56B002DBBD1019B002BD6D0002E72
:10358000D8D001F091FC00F035FB01F06BFC94F811
:1035900044305BB2B3F1FF3FD1D094F845305BB219
:1035A000B3F1FF3FCFD001F07FFC01A902A800F0EA
:1035B00053FD0028D1D12046FFF7EBFC0028C6D0F0
:1035C000019904F1240000F0BDFC2046FFF73DFD09
:1035D00000F0B0FB0028CAD14FF0E0234FF080523A
:1035E000C3F8042DBFF34F8FBFF36F8FBFE70020E9
:1035F00089E72DE9F843C0B10E4690460446E9B18B
:1036000001F058FDEFF311834FF0500282F311885F
:10361000BFF36F8FBFF34F8F1F46A36B9946CBB994
:10362000184687F31188BDE8F8834FF0500383F301
:103630001188BFF36F8FBFF34F8FFEE7036C002B32
:10364000DED04FF0500383F31188BFF36F8FBFF3C9
:103650004F8FFEE794F844305DB231462046FFF7C5
:10366000E2FC09F1FF33A363B5F1FF3F06D02B461F
:1036700001335BB284F844300120D2E723690BB9EF
:103680000120CEE704F1100000F092FC28B143467F
:103690002BB10120C8F80000C3E70120C1E70120D9
:1036A000BFE748B110B5044601F0DCFBA36B1C4634
:1036B00001F0FAFB204610BD4FF0500383F3118850
:1036C000BFF36F8FBFF34F8FFEE728B1826BC36BE1
:1036D0009A420AD0002070474FF0500383F31188BC
:1036E000BFF36F8FBFF34F8FFEE7012070470000DD
:1036F0000023072B0CD8074A52F833200AB10133B4
:10370000F7E7044A42F8331002EBC30250607047F7
:10371000704700BF2C02002070B504460D461646C7
:1037200001F0A0FB94F844305BB2B3F1FF3F0DD041
:1037300094F845305BB2B3F1FF3F0BD001F0B4FB1E
:10374000A36B5BB12046FFF780FC70BD002384F8BB
:103750004430EDE7002384F84530EFE73246294650
:1037600004F1240000F006FCECE70000084B1B68A5
:103770001B6823B9074B4FF0FF321A607047044BA8
:103780001B68DB68DB685A68024B1A60704700BF31
:10379000DC020020740200202DE9F84380460D462B
:1037A00017469946089E0A9C9200A521206B02F0BC
:1037B000ADFE236B07F18042013A03EB820323F055
:1037C000070795B34FF0000CBCF10F0F09D815F89F
:1037D0000C3004EB0C0282F8343013B10CF1010C04
:1037E000F2E7002384F84330372E00D93726E6620B
:1037F000E66400252565201DFFF77FFB04F1180016
:10380000FFF77BFB2461C6F13806A661646265653B
:1038100084F858504A464146384601F0FBFA206089
:10382000099B03B11C60BDE8F883002384F83430A1
:10383000DAE7000038B5002407E004EB84000F4B02
:1038400003EB8000FFF74EFB0134372CF5D90C4D0C
:103850002846FFF747FB0B4C2046FFF743FB0A487F
:10386000FFF740FB0948FFF73DFB0948FFF73AFB2C
:10387000084B1D60084B1C6038BD00BF08030020CA
:10388000F4020020E0020020C4020020B002002068
:1038900098020020DC020020D802002010B5044667
:1038A00001F0E0FA224A136801331360214B1B68D0
:1038B0005BB1214B1B686BB91E4B1B68DA6AE36A6C
:1038C0009A4207D81B4B1C6004E01A4B1C6013681B
:1038D000012B29D0194A1368013313606364E06A2D
:1038E000174B1B68984201D9154B186000EB8000FC
:1038F000211D144B03EB8000FFF702FB01F0D4FA0B
:103900000D4B1B687BB10B4B1B68DA6AE36A9A426A
:1039100009D24FF0E0234FF08052C3F8042DBFF3DB
:103920004F8FBFF36F8F10BDFFF784FFD2E700BF4B
:1039300094020020680700208802002078020020FE
:103940008C0200200803002010B5044690F859307E
:1039500063B1012B11D0022B0ED04FF0500383F333
:103960001188BFF36F8FBFF34F8FFEE7006B01F03D
:10397000D3F9204601F0D0F910BD01F0CDF9FBE7F5
:103980000F4B1B68D3B110B501F06CFA0D4BDB681F
:10399000DC68201DFFF7DBFA0B4A1368013B13605C
:1039A000074A1368013B136001F07EFA2046FFF7D7
:1039B000CBFF034B1B68002BE6D110BD704700BF47
:1039C000AC020020B00200209402002070B5044632
:1039D0000E46174B1D68174B18680430FFF7B7FAEF
:1039E000B4F1FF3F0DD02C44124B1B685C60A54224
:1039F00010D9114B18680F4B19680431FFF78BFA77
:103A000070BD002EEFD00B4B196804310B48FFF747
:103A100077FAF5E70A4B1868064B19680431FFF787
:103A20007AFA084B1B68A342EAD9064B1C60E7E709
:103A30009002002068070020D80200209802002091
:103A4000DC0200207402002008B50BE04FF0E023F8
:103A50004FF08052C3F8042DBFF34F8FBFF36F8F29
:103A6000FCF7F4FFFFF78CFF024B1B68012BEDD82E
:103A7000F6E700BF0803002010B586B08C46099910
:103A800079B10A99B1B15C21049104995C291AD0E9
:103A90004FF0500383F31188BFF36F8FBFF34F8F45
:103AA000FEE74FF0500383F31188BFF36F8FBFF32E
:103AB0004F8FFEE74FF0500383F31188BFF36F8FF2
:103AC000BFF34F8FFEE7DDF810E00A99099C0C6305
:103AD00002210A9C84F8591000210391029405A93F
:103AE0000191089900916146FFF756FE0A98FFF789
:103AF000D5FE059806B010BD2DE9F04385B081468E
:103B0000884614461F46900001F07AF800B3064636
:103B10005C2001F075F80546A0B12E63002380F803
:103B20005930039302900D9B01930C9B00933B46ED
:103B3000224641464846FFF72FFE2846FFF7AEFED5
:103B4000012007E0304601F0E7F84FF0FF3001E0D8
:103B50004FF0FF3005B0BDE8F083000010B588B02D
:103B600000240594069407AA06A905A800F0CEFF34
:103B7000059B0293069B019300942346079A1749DD
:103B80001748FFF779FF174B186018B100F0FEFCDB
:103B9000012804D0B0F1FF3F16D008B010BD4FF09F
:103BA000500383F31188BFF36F8FBFF34F8F0E4B1A
:103BB0004FF0FF321A600D4B01221A600C4B0022AD
:103BC0001A6001F0E9F9E8E74FF0500383F3118838
:103BD000BFF36F8FBFF34F8FFEE700BF6C78000815
:103BE000493A000870020020740200208802002078
:103BF00090020020024A136801331360704700BF2F
:103C00006C020020014B1868704700BF9002002032
:103C1000F8B53D4B1B68002B6ED13C4B1D68013540
:103C20001D60C5B93A4B1B681B6843B14FF0500388
:103C300083F31188BFF36F8FBFF34F8FFEE7344AD2
:103C40001168344B186810601960334A13680133E7
:103C50001360FFF78BFD314B1B68AB4241D900234A
:103C60001F462F4B1B68DB6A03EB83039B002D4A27
:103C7000D358012B01D901231F462B4B1B68002B66
:103C800040D001231F463DE001231F46204B1B6807
:103C90001B684BB31E4B1B68DB68DC6863689D4286
:103CA00027D3261D3046FFF752F9A36A1BB104F152
:103CB0001800FFF74CF9E06A1C4B1B68984201D9C9
:103CC0001A4B186000EB80003146164B03EB800066
:103CD000FFF716F9E26A124B1B68DB6A9A42D3D2ED
:103CE000D4E700231F46D1E70C4B4FF0FF321A6098
:103CF000B7E70A4A1360B4E70D4A1368013313604B
:103D000000231F463846F8BD6C02002090020020B8
:103D1000DC020020D80200207C0200207402002077
:103D20006807002008030020800200208C02002089
:103D30008402002038B5354B1B6843B94FF050035F
:103D400083F31188BFF36F8FBFF34F8FFEE701F04E
:103D500089F82E4B1A68013A1A601B68002B4FD164
:103D60002B4B1B680BB91C464BE00024294B1B68EE
:103D70001BB3284BDB68DC6804F11800FFF7E7F899
:103D8000251D2846FFF7E3F8E06A234B1B6898429D
:103D900001D9214B186000EB800029461F4B03EB33
:103DA0008000FFF7ADF8E26A1D4B1B68DB6A9A42A0
:103DB000DCD31C4B01221A60D8E70CB1FFF7D6FC0C
:103DC000194B1C6884B9174B1C68D4B14FF0E02321
:103DD0004FF08052C3F8042DBFF34F8FBFF36F8FA6
:103DE00001240EE0013C07D0FFF712FF0028F9D0B4
:103DF0000C4B01221A60F5E70B4B00221A60E2E738
:103E0000002401F051F8204638BD00BF6C020020AC
:103E100094020020C40200208C020020080300202D
:103E200068070020800200208402002010B5A8B19D
:103E30000446104B1B6843B14FF0500383F31188C5
:103E4000BFF36F8FBFF34F8FFEE7FFF7D3FE002165
:103E50002046FFF7BBFDFFF76DFF48B94FF0E023A9
:103E60004FF08052C3F8042DBFF34F8FBFF36F8F15
:103E700010BD00BF6C02002008B52D4B1B681BB1A4
:103E80002C4B01221A6008BD2A4B00221A602A4BD3
:103E90001B681B6B1A68B2F1A53F03D15A68B2F1D7
:103EA000A53F10D0244B186819683431FCF7CFFDBA
:103EB000224B1B6803EB8302920021498A58A2B966
:103EC00053B1013BF6E79A68B2F1A53FEAD1DB684E
:103ED000B3F1A53FE6D1EBE74FF0500383F3118830
:103EE000BFF36F8FBFF34F8FFEE7084603EB8302EC
:103EF00001EB820251684968516003EB8302920032
:103F00000832024491420BD003EB83010C4A02EBCE
:103F100081025268D168084A1160084A1360B2E70A
:103F2000486803EB8301064A02EB81025060EBE72D
:103F30006C02002080020020680700208C02002014
:103F40000803002058B110B50C46094A1168183111
:103F5000FEF7E1FF01212046FFF738FD10BD4FF0CD
:103F6000500383F31188BFF36F8FBFF34F8FFEE7CA
:103F70006807002038B578B10D4614460B4A116821
:103F80001831FEF7BDFF14B14FF0FF331D46214637
:103F90002846FFF71BFD38BD4FF0500383F311880F
:103FA000BFF36F8FBFF34F8FFEE700BF680700209E
:103FB00038B5C368DC6834B304F118031D461846ED
:103FC000FEF7C5FF184B1B6833BB231D1D46184663
:103FD000FEF7BDFFE06A154B1B68984201D9134BF1
:103FE000186000EB80002946114B03EB8000FEF7C0
:103FF00087FFE26A0F4B1B68DB6A9A4211D90120E6
:104000000D4B186038BD4FF0500383F31188BFF398
:104010006F8FBFF34F8FFEE729460848FEF770FF0A
:10402000E7E70020EEE700BF6C0200208C020020D2
:10403000080300206807002080020020C40200203E
:10404000034B1B680360034B1B684360704700BF52
:104050007C02002090020020E0B170B50C460646BC
:1040600009B300F0FFFE1C4B19687368C81A226878
:10407000B2F1FF3F28D03568DFF860C0DCF800C03F
:10408000654501D08B4224D9824215D80023236094
:1040900001241AE04FF0500383F31188BFF36F8FB0
:1040A000BFF34F8FFEE74FF0500383F31188BFF348
:1040B0006F8FBFF34F8FFEE75B1A134423603046C8
:1040C000FFF7BEFF002400E0002400F0EDFE2046D4
:1040D00070BD0124F9E700BF900200207C0200209F
:1040E000014B01221A60704780020020054B1B68BB
:1040F00033B1054B1B680BB100207047022070479D
:1041000001207047880200206C02002000283ED069
:1041100038B504461E4B1B68834208D04FF050034D
:1041200083F31188BFF36F8FBFF34F8FFEE7036DEB
:1041300043B94FF0500383F31188BFF36F8FBFF380
:104140004F8FFEE7013B0365C16AC26C91421CD0F0
:104150000BB1002038BD031D1D461846FEF7F7FEC3
:10416000E06CE062C0F13803A3610A4B1B6898421F
:1041700001D9084B186000EB80002946064B03EB81
:104180008000FEF7BDFE0120E4E70020E2E7704773
:10419000680700208C02002008030020F8B50546BF
:1041A0000F4616461C4600F05DFE214B1B6893F837
:1041B0005830022B0AD01E4A11684B6D23EA0503C2
:1041C0004B651368012283F85820CCB900F06CFECF
:1041D00000F048FE1EB1164B1B685B6D3360144B3C
:1041E0001B6893F85830022B19D000231C46104B43
:1041F0001B68002283F8582000F056FE2046F8BDC8
:1042000011462046FFF7E2FB4FF0E0234FF08052CB
:10421000C3F8042DBFF34F8FBFF36F8FD6E7044B66
:104220001A68536D23EA0703536501231C46DEE732
:1042300068070020F8B5F0B10F4614461E46054643
:1042400000F010FE0EB16B6D336095F85830DBB2A4
:10425000022285F8582094421ED015D824B1012C92
:1042600020D16A6D3A436A65012B28D0012400F001
:104270001BFE2046F8BD4FF0500383F31188BFF3B7
:104280006F8FBFF34F8FFEE7032C09D0042C09D1A9
:10429000022B44D06F65E7E76A6D01326A65E3E798
:1042A0006F65E1E76A6DB2F1FF3FDDD04FF050037B
:1042B00083F31188BFF36F8FBFF34F8FFEE72C1D81
:1042C0002046FEF744FEE86A174B1B68984201D966
:1042D000154B186000EB80002146144B03EB800067
:1042E000FEF70EFEAB6A43B14FF0500383F3118823
:1042F000BFF36F8FBFF34F8FFEE7EA6A0C4B1B686B
:10430000DB6A9A420DD94FF0E0234FF08052C3F898
:10431000042DBFF34F8FBFF36F8F0124A7E7002455
:10432000A5E70124A3E700BF8C02002008030020BA
:104330006807002058B32DE9F0410F4614461E4689
:10434000054600F0B7FEEFF311834FF0500282F301
:104350001188BFF36F8FBFF34F8F98460EB16B6D0F
:10436000336095F85830DBB2022285F85820944229
:104370001ED015D824B1012C20D16A6D3A436A654C
:10438000012B28D0012088F31188BDE8F0814FF07F
:10439000500383F31188BFF36F8FBFF34F8FFEE796
:1043A000032C09D0042C09D1022B4AD06F65E7E712
:1043B0006A6D01326A65E3E76F65E1E76A6DB2F144
:1043C000FF3FDDD04FF0500383F31188BFF36F8FB1
:1043D000BFF34F8FFEE7AB6A43B14FF0500383F357
:1043E0001188BFF36F8FBFF34F8FFEE7174B1B682A
:1043F0000BBB2C1D2046FEF7AAFDE86A144B1B6878
:10440000984201D9124B186000EB80002146114BF5
:1044100003EB8000FEF774FDEA6A0F4B1B68DB6A52
:104420009A4210D9069B13B10123069A136001200A
:104430000A4B1860A7E705F118010948FEF760FD6F
:10444000EAE700209FE701209DE700BF6C02002003
:104450008C02002008030020680700208002002052
:10446000C4020020064B1A6813682BB901230360AD
:1044700023B9D368186870470023F8E70020704715
:104480006C08002008B54160006191420CD8D21A36
:1044900083699A4201D3012008BD011D094B1868A8
:1044A000FEF739FD0020F7E79A4201D2994206D281
:1044B000011D054B1868FEF72EFD0020ECE70120DA
:1044C000EAE700BF680800206C08002000B583B050
:1044D00000F0C8FC114B1B681BB100F0E5FC03B0F9
:1044E00000BD0F48FEF7FEFC0E48FEF7FBFC0E4B2E
:1044F0000B4A1A600D4B0B4A1A60002300930C4BB9
:104500000C4A10210A20FEF72AFE044B18600028EE
:10451000E3D00949FFF7ECF8DFE700BF64080020AB
:1045200084080020700800206C0800206808002023
:104530006C070020BC07002074780008F8B541B96A
:104540004FF0500383F31188BFF36F8FBFF34F8F8A
:10455000FEE7044616461F460D46079BA3B1FFF72C
:10456000B5FF079B1C609D61DF61069B079A136284
:10457000101DFEF7C2FC3EB1079B93F8283043F0B4
:104580000403079A82F82830F8BD000010B588B0FF
:10459000FFF79CFF124B1B68CBB1002405940694D7
:1045A00007AA06A905A800F0BDFA059B0293069B81
:1045B0000193022300932346079A0A490A48FFF70A
:1045C0005BFA0A4B186010B1012008B010BD4FF023
:1045D000500383F31188BFF36F8FBFF34F8FFEE754
:1045E000640800207C780008414900086008002029
:1045F0002DE9F04182B080460F4616461D462C201C
:1046000000F0FEFA044658B1002380F828300190EB
:10461000089B00932B46324639464046FFF78EFFF3
:10462000204602B0BDE8F081B8B19C460346174869
:10463000006850B300B585B000910192029305293E
:104640001CDCFFF753FD022810D000231A466946F0
:104650000E480068FEF7F1FD15E04FF0500383F3BC
:104660001188BFF36F8FBFF34F8FFEE70023069AC9
:10467000694606480068FEF7E0FD04E00023624654
:104680006946FEF79EFE05B000BD70476408002035
:1046900070B582B01B4B1B681A6862B3DB681E687A
:1046A000DC68251D2846FEF752FC236A2046984701
:1046B00094F8283013F0040FECD0A36933449E42E1
:1046C00007D26360246129460E4B1868FEF723FC6D
:1046D000E0E7002100910B4632462046FFF7A4FF99
:1046E0000028D7D14FF0500383F31188BFF36F8FA9
:1046F000BFF34F8FFEE7044A106802490860136059
:1047000002B070BD6C0800206808002038B505466E
:10471000FFF778FA0446074B1B68834205D800234D
:104720002B60044B1C60204638BDFFF7B1FF01230E
:104730002B60F6E75C08002070B582B005460E4697
:1047400017490968C968CC68201DFEF700FC94F879
:1047500028C01CF0040F08D12CF0010C84F828C0EC
:10476000236A2046984702B070BDA1692B463246A5
:1047700029442046FFF786FE0028F1D00021009151
:104780000B462A462046FFF74FFF0028E8D14FF09E
:10479000500383F31188BFF36F8FBFF34F8FFEE792
:1047A0006C08002070B582B005460C46FFF722FA6F
:1047B00001A8FFF7ABFF019B3BBB0646E4B9A8424B
:1047C00013D22246A91B134B1868FEF7A5FFFFF76B
:1047D000B1FAE0B94FF0E0234FF08052C3F8042D56
:1047E000BFF34F8FBFF36F8F11E0FFF7A3FA31468E
:1047F0002846FFF7A1FF0AE0074A1268126812B9BB
:1048000001231C46DDE71C46DBE7FFF793FA02B005
:1048100070BD00BF640800206808002010B588B093
:1048200002E0049B002B0FDA002204A9434B186816
:10483000FEF730FE00287ED0049B002BF1DA0799AA
:104840000698059B9847ECE7069C636913B1201D09
:10485000FEF77DFB03A8FFF759FF049B052B5CD0F7
:1048600041DC032B49D02CDC022BDDD894F8283016
:1048700043F0010384F82830059BA16902461944DE
:104880002046FFF7FFFD0028CED0236A2046984738
:1048900094F8283013F0040FC6D0A26900210091CB
:1048A0000B46059802442046FFF7BEFE0028BBD108
:1048B0004FF0500383F31188BFF36F8FBFF34F8F17
:1048C000FEE7042BB0D194F8283043F0010384F8BC
:1048D00028300599A161B9B103460246014420463A
:1048E000FFF7D0FDA0E7082B07D003DC063B012B28
:1048F000BCD999E7092BE6D096E794F8283023F045
:10490000010384F828308FE74FF0500383F31188B8
:10491000BFF36F8FBFF34F8FFEE794F8283013F08B
:10492000020F04D023F0010384F828307CE72046EE
:1049300000F0F2F978E708B010BD00BF640800206D
:1049400000B583B001A8FFF78DFD0199FFF72AFF9D
:10495000FFF764FFF6E770B110B5044600F082FA85
:1049600094F8283013F0010F0ED100231C4600F0FC
:104970009BFA204610BD4FF0500383F31188BFF31C
:104980006F8FBFF34F8FFEE701231C46EFE748B15F
:1049900010B5044600F066FAE3691C4600F084FA9C
:1049A000204610BD4FF0500383F31188BFF36F8F83
:1049B000BFF34F8FFEE708B54FF0E0231B69FFF709
:1049C00095FB012800D108BD00F0BCFAFBE7000010
:1049D000EFF305832BB9064B186828B901221A603A
:1049E00070476FF0050070474FF0FF30704700BF11
:1049F000500F002008B5EFF3058373B90A4B1B680D
:104A0000012B0DD1094B4FF00002DA77064B022241
:104A10001A60FFF7A3F8002008BD6FF00500FBE760
:104A20004FF0FF30F8E700BF500F002000ED00E02E
:104A300070B586B000230593EFF3058343BB38B30D
:104A4000002A3DD0D2F800E093692BB11D46013B0E
:104A5000372B03D900201CE018231D46536813F0A0
:104A6000010F44D1D2F814C0BCF1000F13D04FEAAB
:104A70009C031E4693683BB1D4685B2C04D914692F
:104A800014B1BCF1000F11D143B14FF0FF330BB3A0
:104A9000059806B070BD80231E46EBE7D368B3B916
:104AA0001369002BF3D04FF0FF33F0E7029301942A
:104AB00000950B4632467146FEF7DEFF0590E7E7AC
:104AC000964613461822154680221646DFE74FF019
:104AD000FF33DCE705AB019300950B46B2B271469C
:104AE000FFF70AF80128D3D000230593D0E7002070
:104AF000CFE708B5EFF305832BB900B908BDFFF781
:104B000095F90020FAE76FF00500F7E7034B036023
:104B1000034B0B6080231360704700BFF40E00202E
:104B2000F40C0020034B0360034B0B604FF48073C5
:104B300013607047980C002098080020134A12F068
:104B4000070F1FD0D11D21F00701C1F56A5318339B
:104B500013440A460E480260002141601344083B9A
:104B600023F007030B48036059601960991A5160DC
:104B70001360094B1960094B1960094B4FF0004253
:104B80001A60704743F69823E4E700BF740F0020D3
:104B90006C0F0020680F0020600F0020640F0020C1
:104BA000540F0020144B1A461B688342FBD35168F4
:104BB00002EB010C844509D0416800EB010C634510
:104BC00009D00360904200D01060704740680144F3
:104BD00051601046F0E7DFF824C0DCF800C0634500
:104BE00006D05B681944416013681B680360E9E7FD
:104BF000C0F800C0E6E700BF6C0F0020680F00207F
:104C000038B50446FEF7F6FF3D4B1B68ABB13D4B94
:104C10001B681C4214D1002C6AD004F1080214F065
:104C2000070F02D022F007020832D2B1364B1B68C0
:104C300093421AD335490C681DE0FFF77FFFE6E782
:104C4000FFF778F80025FBF703FF15F0070F55D0A5
:104C50004FF0500383F31188BFF36F8FBFF34F8F73
:104C6000FEE7FFF767F80025EDE7FFF763F800259B
:104C7000E9E721461C466368934202D22368002B71
:104C8000F7D11F4B1B68A34214D00D680835236869
:104C90000B6063689B1A102B14D9A01810F0070F33
:104CA0000CD04FF0500383F31188BFF36F8FBFF325
:104CB0004F8FFEE7FFF73EF80025C4E743606260D0
:104CC000FFF770FF626810490B689B1A0B60104970
:104CD00009688B4201D20E490B600A4B1B681343D3
:104CE0006360002323600B4A13680133136000E004
:104CF0002546FFF71FF8002DA7D1A4E7284638BDA9
:104D0000680F0020540F0020640F00206C0F00205B
:104D1000600F00205C0F0020002835D038B5044615
:104D2000A0F108031D4650F8043C184A12681342CB
:104D300008D14FF0500383F31188BFF36F8FBFF397
:104D40004F8FFEE750F8081C41B14FF0500383F33A
:104D50001188BFF36F8FBFF34F8FFEE723EA020383
:104D600040F8043CFEF746FF54F8041C084A136858
:104D70000B4413602846FFF715FF064A13680133FA
:104D80001360FEF7D7FF38BD704700BF540F0020F7
:104D9000640F0020580F002082B0002301930D4BB8
:104DA0001B68B3F1FF3F08D04FF0500383F3118825
:104DB000BFF36F8FBFF34F8FFEE74FF0500383F3C6
:104DC0001188BFF36F8FBFF34F8F019B002BFCD077
:104DD00002B070472000002008480068006880F397
:104DE00008884FF0000080F3148862B661B6BFF304
:104DF0004F8FBFF36F8F00DF00BF000008ED00E0B2
:104E0000DFF80C00016841F4700101607047000098
:104E100088ED00E04FF0807340F8043C21F0010180
:104E200040F8081C054B40F80C3C40F8202C6FF073
:104E3000020340F8243C4438704700BF994D0008F5
:104E4000074B19680868B0E8F04F80F30988BFF392
:104E50006F8F4FF0000080F311887047AFF3008030
:104E6000680700204FF0500383F31188BFF36F8F62
:104E7000BFF34F8F0B4A136801331360012B00D02F
:104E800070474FF0E023D3F8043D13F0FF0FF7D045
:104E90004FF0500383F31188BFF36F8FBFF34F8F31
:104EA000FEE700BF20000020094B1B6843B94FF00C
:104EB000500383F31188BFF36F8FBFF34F8FFEE76B
:104EC000013B034A13600BB983F31188704700BF9D
:104ED0002000002000000000000000000000000092
:104EE000EFF30980BFF36F8F154B1A681EF0100F98
:104EF00008BF20ED108A20E9F04F106009B44FF090
:104F0000500080F31188BFF34F8FBFF36F8FFEF710
:104F1000B3FF4FF0000080F3118809BC19680868DE
:104F2000B0E8F04F1EF0100F08BFB0EC108A80F30D
:104F30000988BFF36F8F7047AFF30080AFF3008035
:104F40006807002008B54FF0500383F31188BFF3C2
:104F50006F8FBFF34F8FFEF75BFE28B14FF0E0235A
:104F60004FF08052C3F8042D002383F3118808BD4D
:104F70004FF0E022002313619361054B1B68054944
:104F8000A1FB03139B09013B536107231361704786
:104F90001C000020D34D62104FF0E023D3F8002D09
:104FA0003E4B9A421CD04FF0E023D3F8002D3C4BEF
:104FB0009A421ED010B582B03A4B1A78D2B2019202
:104FC000FF221A701B78DBB28DF803309DF8033096
:104FD00003F05003344A1370344B07221A601BE06D
:104FE0004FF0500383F31188BFF36F8FBFF34F8FE0
:104FF000FEE74FF0500383F31188BFF36F8FBFF3C9
:105000004F8FFEE7294A1368013B13609DF8033078
:105010005B00DBB28DF803309DF8033013F0800F96
:10502000F0D1224B1B68032B08D04FF0500383F3C1
:105030001188BFF36F8FBFF34F8FFEE71B021B4A30
:10504000136003F4E0631360019BDBB2154A137035
:105050004FF0E022D2F8203D43F47003C2F8203D27
:10506000D2F8203D43F070431446C2F8203DFFF7CC
:105070007FFF0F4B00221A60FFF7C2FED4F8343FC7
:1050800043F04043C4F8343FFFF7A6FEFEF7F4FEBA
:10509000FFF782FE002002B010BD00BF71C20F41B9
:1050A00070C20F4100E400E0104A00200C4A0020CA
:1050B00020000020EFF305830F2B0ED9114A9A5CD4
:1050C000114B1B789A4208D24FF0500383F311889A
:1050D000BFF36F8FBFF34F8FFEE74FF0E023D3F89E
:1050E0000C3D03F4E063094A1268934208D94FF07B
:1050F000500383F31188BFF36F8FBFF34F8FFEE729
:10510000704700BFF0E300E0104A00200C4A002086
:1051100008B503460D4A0E490E48006840B10D48D7
:1051200000680344521A934208D80A4A136008BD23
:105130000848DFF824C0C0F800C0F0E701F034FAF6
:105140000C2303604FF0FF30F1E700BF0080012027
:1051500000040000144A0020684B002070B50E4681
:105160001546002406E0AFF30080314601F8010B3C
:1051700001340E46AC42F6DB284670BD70B50C46D5
:105180001646002504E014F8010BAFF3008001354A
:10519000B542F8DB304670BD4FF0FF3070474FF43A
:1051A00000534B600020704701207047002070477B
:1051B00038B5044603680A4ADA60FCF701FC054684
:1051C0002368DB6813F0200F07D1FCF7F9FB401BC5
:1051D000B0F57A7FF4D9032000E0002038BD00BF8D
:1051E0005FFF030070B50368DA6812F0400F02D069
:1051F0000025284670BD04464FF0FF32DA60FCF708
:10520000DFFB064600252368DB6813F0400FF0D172
:10521000032DEED0FCF7D4FB831BB3F57A7FF2D9D4
:10522000032584F82150EEE710B50446104BDA68E8
:1052300022F08002DA609B6813F0200F06D1FFF79E
:10524000B7FF98B1032084F821000FE0084A936863
:1052500023F020039360FFF7ABFF10B1032084F825
:105260002100034A936843F02003936010BD00BF00
:105270000028004000284ED038B5044690F8213070
:1052800063B1022384F821302368DA6812F0100F2A
:1052900009D00020012384F8213038BD80F8203067
:1052A000FCF704F9EDE7CA225A62236853225A62D6
:1052B0002046FFF797FFC0B92268936823F4E00304
:1052C00023F04003936021688A6863682069034380
:1052D000A069034313438B602368E2681A61226864
:1052E0001369A16843EA014313612046FFF79CFF5D
:1052F00058B92268D36C23F00303D3642168CB6CC4
:10530000E26965692A431343CB642368FF225A622A
:105310000028C2D1BEE701207047002302E001331C
:105320000A38C0B20928FAD81B01DBB2184370470B
:1053300090F82030012B61D070B504460D4616461A
:10534000012380F82030022380F821300368CA222C
:105350005A62036853225A62FFF744FF002830D193
:10536000002E39D123689B6813F0400F01D1002330
:10537000EB702878FFF7D1FF03041E466878FFF72B
:10538000CCFF46EA00231E46A878FFF7C6FF334647
:105390000343EA7843EA8253226803F07F3323F021
:1053A000FE4313602268936823F48023936021688E
:1053B0008B68EA682869024313438B602046FFF735
:1053C00033FF2368FF225A6210B9012384F8213089
:1053D000002384F8203070BD23689B6813F0400FD1
:1053E00001D10023EB702A786B781B0243EA024359
:1053F000AA781343EA7843EA8253CDE70220704744
:1054000090F82030012B4DD070B504460D46012395
:1054100080F82030022380F82130F2B1CA784B782E
:105420001B0243EA02438A7813430A7843EA42356F
:105430002368CA225A62236853225A622046FFF721
:10544000D1FE28B32368FF225A6210B9012384F8E1
:105450002130002384F8203070BD4B7813F0100FFA
:1054600003D003F0EF030A334B70E878FFF755FFE2
:1054700003041E466878FFF750FF46EA00231E46E5
:10548000A878FFF74AFF30432B7840EA4335CFE74F
:10549000226825F07F4323F0C00353602046FFF7C6
:1054A000C3FECFE702207047030903EB830300F03C
:1054B0000F0000EB4300C0B2704770B503689B6AF1
:1054C0004B6003681B69C3F30E038B6003681B68A2
:1054D000C3F305400870C3F306264E7003F07F0542
:1054E0008D70C3F38053CB705AB90C46FFF7DCFFC5
:1054F00020703046FFF7D8FF60702846FFF7D4FFD2
:10550000A070002070BD70B503685B68C3F30740EE
:10551000C870C3F304264E7003F03F058D70C3F3CB
:1055200042330B705AB90C46FFF7BEFFE0703046AD
:10553000FFF7BAFF60702846FFF7B6FFA0700020A3
:1055400070BD026852E8003F23F4907342E80031D6
:105550000029F6D1026802F1080353E8003F23F066
:105560000103083242E800310029F3D1036E012B18
:1055700006D02023C0F8803000230366836670477E
:10558000026852E8003F23F0100342E8003100298E
:10559000F6D1EEE7704708B5026852E8003F23F005
:1055A000400342E800310029F6D12023C367C166D9
:1055B000FFF7F0FF08BD704708B5806AFFF7FBFFF3
:1055C00008BD704710B504460268D3691168906839
:1055D00040F60F0C13EA0C0F0AD113F0200F0FD076
:1055E00011F0200F0CD0A36E2BB32046984722E079
:1055F00010F0010C20D1DFF8E0E211EA0E0F1BD110
:10560000D4F860C0BCF1010F00F0AB8013F4801F30
:1056100003D010F4800F40F04B8113F0800F03D0C3
:1056200011F0800F40F04B8113F0400F03D011F0C8
:10563000400F40F04B8110BD13F0010F09D011F461
:10564000807F06D001201062D4F884200243C4F881
:10565000842013F0020F0BD0BCF1000F08D0226899
:1056600002201062D4F8842042F00402C4F884209E
:1056700013F0040F0BD0BCF1000F08D022680420F7
:105680001062D4F8842042F00202C4F8842013F09F
:10569000080F0DD011F0200F02D1BCF1000F07D080
:1056A000226808201062D4F884200243C4F88420C1
:1056B00013F4006F0CD011F0806F09D022684FF402
:1056C00000601062D4F8842042F02002C4F88420E4
:1056D000D4F88420002AAED013F0200F06D011F0A9
:1056E000200F03D0A36E0BB120469847D4F8842036
:1056F00023689B6813F0400F02D112F0280F29D0C5
:105700002046FFF71EFF23689B6813F0400F1DD053
:10571000226802F1080353E8003F23F040030832F7
:1057200042E800310029F3D1636F5BB1694A9A63A3
:10573000606FFDF7E9FA00283FF47DAF606F836B7F
:10574000984778E72046FFF736FF74E72046FFF7D3
:1057500032FF70E72046FFF72EFF0023C4F88430A5
:1057600069E713F0100F3FF451AF11F0100F3FF441
:105770004DAF1023136223689B6813F0400F5ED077
:10578000616F0A6853689BB2002B48D0B4F8580088
:10579000984244D9A4F85A300B681B6813F0200FC4
:1057A00030D1226852E8003F23F4807342E8003190
:1057B0000029F6D1226802F1080353E8003F23F0E4
:1057C0000103083242E800310029F3D1226802F1D6
:1057D000080353E8003F23F04003083242E8003159
:1057E0000029F3D12023C4F880302166226852E8D2
:1057F000003F23F0100342E800310029F6D1606F2A
:10580000FDF75BFA02236366B4F85810B4F85A3017
:105810009BB2C91A89B22046FFF7D3FE0BE7B4F852
:10582000581099427FF407AF136813F0200F3FF42C
:1058300002AF022363662046FFF7C3FEFBE6B4F81F
:105840005810B4F85A309BB2C91A89B2B4F85A3019
:105850009BB2002B3FF4EFAE00293FF4ECAE226880
:1058600052E8003F23F4907342E800300028F6D15C
:10587000226802F1080353E8003F23F001030832D5
:1058800042E800300028F3D12023C4F8803020669D
:10589000A066226852E8003F23F0100342E800307F
:1058A0000028F6D1022363662046FFF78AFEC2E68F
:1058B0004FF480131362204600F0C0FCBBE6E36E99
:1058C000002B3FF4B8AE20469847B4E62046FFF7D9
:1058D00062FEB0E6B95500082001000408B5B0F832
:1058E0005C30D0F88020222A05D00268936943F00A
:1058F0000803936108BD0268516ADBB2426D0B4038
:105900001370436D01334365B0F85A309BB2013BCD
:105910009BB2A0F85A30B0F85A309BB2002BE9D1B4
:10592000026852E8003F23F4907342E800310029F6
:10593000F6D1026802F1080353E8003F23F00103A7
:10594000083242E800310029F3D12023C0F880302A
:10595000816641660368164A93420CD05B6813F473
:10596000000F08D0026852E8003F23F0806342E84D
:1059700000310029F6D1036E012B16D100230366F6
:10598000026852E8003F23F0100342E8003100298A
:10599000F6D10368DA6912F0100F01D010221A62F2
:1059A000B0F85810FFF70DFEA4E7FAF78FFEA1E755
:1059B0000080004008B5B0F85C20D0F88030222B81
:1059C00005D00268936943F00803936108BD03683A
:1059D0005B6A416D13400B80436D02334365B0F841
:1059E0005A309BB2013B9BB2A0F85A30B0F85A3003
:1059F0009BB2002BEAD1026852E8003F23F4907377
:105A000042E800310029F6D1026802F1080353E8A8
:105A1000003F23F00103083242E800310029F3D1AE
:105A20002023C0F88030816641660368164A93429D
:105A30000CD05B6813F4000F08D0026852E8003FF6
:105A400023F0806342E800310029F6D1036E012B78
:105A500016D100230366026852E8003F23F01003CA
:105A600042E800310029F6D10368DA6912F0100F1C
:105A700001D010221A62B0F85810FFF7A2FDA5E776
:105A8000FAF724FEA2E700BF0080004010B50446EC
:105A900083680269134342691343C269134301686F
:105AA0000868A04A02401A430A602268536823F437
:105AB0004053E1680B435360A16922689A4B9A42B4
:105AC00001D0236A1943936823F430630B43936036
:105AD0002368964A934226D0954A934236D0954AF7
