:020000040800F2
:1000000000800120812F0008DB020008DD020008CB
:10001000DF020008E1020008E3020008000000001F
:10002000000000000000000000000000B12C0008EB
:10003000E502000800000000512D000827280008F4
:10004000D12F0008D12F0008D12F0008D12F000890
:10005000D12F0008D12F0008D12F0008D12F000880
:10006000D12F0008D12F0008D12F0008D12F000870
:10007000D12F0008D12F0008D12F0008D12F000860
:10008000D12F0008D12F0008D12F0008D12F000850
:10009000D12F0008D12F0008D12F0008D12F000840
:1000A000D12F0008D12F0008D12F0008D12F000830
:1000B000D12F0008D12F0008D12F0008D12F000820
:1000C000D12F0008D12F0008D12F0008D12F000810
:1000D000D12F0008D12F0008D12F0008D12F000800
:1000E000D12F0008D12F0008D12F0008D12F0008F0
:1000F000D12F0008D12F0008D12F0008D12F0008E0
:10010000D12F0008D12F0008D12F0008D12F0008CF
:10011000D12F0008D12F0008E9020008D12F0008D4
:10012000D12F0008D12F0008D12F0008D12F0008AF
:10013000D12F0008D12F0008D12F0008D12F00089F
:10014000D12F0008D12F0008D12F0008D12F00088F
:10015000D12F0008D12F0008D12F0008D12F00087F
:10016000D12F0008D12F0008D12F0008D12F00086F
:10017000D12F0008D12F0008D12F00080000000067
:08018000D12F0008D12F000867
:100190000348044B834202D0034B03B11847704716
:1001A0001000002010000020000000000548064B51
:1001B0001B1AD90F01EBA301491002D0034B03B165
:1001C00018477047100000201000002000000000B9
:1001D00010B5064C237843B9FFF7DAFF044B13B18F
:1001E0000448AFF300800123237010BD10000020ED
:1001F000000000004830000808B5044B1BB104495A
:100200000448AFF30080BDE80840CFE700000000DD
:10021000140000204830000808B5012002F0A1FBBE
:10022000FBE7000008B50268034B9A4200D008BD06
:1002300000F08CFAFBE700BF0010004072B6FEE74A
:1002400000B597B04422002105A802F0C2FE0023A9
:10025000009301930293039304934FF4007000F012
:1002600035FFC0B91023059301230B930C90602236
:100270000D920F9005A800F017FB70B90F230093A3
:1002800001460190029003900490684600F01CFE25
:1002900028B917B000BDFFF7D1FFFFF7CFFFFFF779
:1002A000CDFF000008B500F040FAFFF7C9FF02F0EB
:1002B000C7FA054A0021054802F0F2FA044B18601B
:1002C00002F0D0FAFEE700BF8430000819020008EF
:1002D0002C000020704770477047FEE7FEE7FEE7FE
:1002E000FEE7FEE77047000008B5024800F0C2F8DC
:1002F00008BD00BF3000002000B583B00D4B1A6E62
:1003000042F001021A661A6E02F001020092009A8F
:100310009A6D42F080529A659B6D03F08053019371
:10032000019B00220F216FF0010000F06FFF03B06E
:1003300000BD00BF0010024030B589B00446224B1A
:100340009A6D42F010029A659B6D03F010030193C1
:10035000019B02A903A800F093FE069BCBB900F015
:100360007DFE0346194AA2FB03239B0C013B184860
:10037000184A026040F2E732C26043600023036122
:100380008360836100F09EF9054630B1284609B0CC
:1003900030BD00F063FE4300E4E70D4800F020F8B4
:1003A00005460028F2D1362000F040FF0F2C02D97C
:1003B00001231D46EAE700222146362000F026FFF1
:1003C000054B1C60E2E700BF0010024083DE1B43C8
:1003D00030000020001000400400002070470000A2
:1003E00090F83D30012B36D1022380F83D30026871
:1003F000D36843F00103D36003681A4A93421CD0C8
:10040000B3F1804F19D0A2F59432934215D002F582
:100410008062934211D002F5806293420DD002F5C2
:100420009432934209D002F54062934205D01A6893
:1004300042F001021A600020704799680A4A0A4097
:10044000062A0AD0B2F5803F09D01A6842F00102AC
:100450001A6000207047012070470020704700207C
:10046000704700BF002C0140070001007047704733
:100470007047704770B504460368DE681D6915F063
:10048000020F10D016F0020F0DD06FF002021A61A9
:100490000123037703689B6913F0030F67D0FFF70D
:1004A000E6FF0023237715F0040F12D016F0040F97
:1004B0000FD023686FF004021A61022323772368A8
:1004C0009B6913F4407F58D02046FFF7D0FF0023EC
:1004D000237715F0080F12D016F0080F0FD02368FD
:1004E0006FF008021A61042323772368DB6913F095
:1004F000030F49D02046FFF7BAFF0023237715F0FA
:10050000100F12D016F0100F0FD023686FF01002EA
:100510001A61082323772368DB6913F4407F3AD0FC
:100520002046FFF7A4FF0023237715F0010F02D028
:1005300016F0010F36D115F0800F02D115F4005FCF
:1005400002D016F0800F35D115F4807F02D016F05E
:10055000800F37D115F0400F02D016F0400F39D17F
:1005600015F0200F02D016F0200F3BD170BDFFF721
:100570007DFF2046FFF77CFF93E72046FFF776FFDD
:100580002046FFF775FFA2E72046FFF76FFF2046E2
:10059000FFF76EFFB1E72046FFF768FF2046FFF741
:1005A00067FFC0E723686FF001021A612046FFF77A
:1005B00039FEC0E723686FF402521A61204600F04A
:1005C000B2F8C1E723686FF480721A61204600F028
:1005D000ABF8BFE723686FF040021A612046FFF7CF
:1005E00048FFBDE723686FF020021A61204600F043
:1005F00099F8BBE70368324A904212D0B0F1804FBD
:100600000FD0A2F5943290420BD002F58062904256
:1006100007D002F58062904203D002F594329042F6
:1006200003D123F070034A681343254A90421ED039
:10063000B0F1804F1BD0A2F59432904217D002F552
:100640008062904213D002F5806290420FD002F592
:10065000943290420BD002F54062904207D002F5EE
:100660008062904203D002F58062904203D123F46D
:100670004073CA68134323F080034A6913438A68AE
:10068000C2620A6882620E4A90420FD002F500628E
:1006900090420BD002F54062904207D002F5806292
:1006A000904203D002F58062904201D10A69026350
:1006B000026842F004020260012242610360704756
:1006C000002C014060B310B5044690F83D3013B3E0
:1006D000022384F83D30214651F8040BFFF78AFFCE
:1006E000012384F8483084F83E3084F83F3084F8A1
:1006F000403084F8413084F8423084F8433084F844
:10070000443084F8453084F8463084F8473084F823
:100710003D30002010BD80F83C30FFF75FFED7E78A
:100720000120704770477047704710B5032000F0F4
:100730005BFD0F20FFF700FE18B101231C46204689
:1007400010BD0446FFF7D8FDF9E70000034B1B7806
:10075000034A11680B441360704700BF000000207B
:100760007C000020014B1868704700BF7C0000200F
:1007700030B583B00546204B9B6D13F0805F0BD0E6
:1007800000F09CFCB0F5007F17D0802D1FD82DD035
:10079000702D2DD000211BE0174CA36D43F080532A
:1007A000A365A36D03F080530193019B00F086FCC9
:1007B000A36D23F08053A365E4E7802D03D9A02D1A
:1007C00003D9022104E0002102E0012100E003211D
:1007D0000A4A136823F007030B431360136803F0FE
:1007E00007038B4206D1002003B030BD0221EFE7A2
:1007F0000121EDE70120F7E7001002400020024050
:10080000254A9368D26802F0030213F00C0309D062
:100810000C2B05D0042B3BD0082B3BD000200FE045
:10082000012AF7D11C4A126812F0080F0CD11A4A9B
:10083000D2F89420C2F30322184951F8220013B1D0
:100840000C2B06D000207047134A1268C2F3031223
:10085000F2E7114BDB6803F00303022B16D0032BE6
:1008600000D10F480C49CA68C2F302120132CB68AA
:10087000C3F3062300FB03F3B3FBF2F3C868C0F332
:10088000416001304000B3FBF0F070470548E9E7F4
:10089000044870470248704700100240A830000822
:1008A00000127A000024F400002800F0F382F0B572
:1008B00083B00446964B9D6805F00C05DB6803F099
:1008C00003031E46036813F0100F5AD0E5B10C2D38
:1008D00018D0A369002B00F0BB808D4A136843F049
:1008E00001031360FFF73EFF0746894B1B6813F0B7
:1008F000020F40F09A80FFF735FFC01B0228F4D9A1
:100900000320D2E2012EE4D1814B1B6813F0020FC9
:1009100003D0A369002B00F0BF82206A7C4B1B68C8
:1009200013F0080F5BD07A4B1B6803F0F00398427A
:100930005CD8774B1A6842F008021A601A6822F0F5
:10094000F002216A0A431A605A6822F47F42E16980
:1009500042EA01225A60002D60D0FFF751FF6C4B34
:100960009B68C3F303136B4AD35C03F01F03D840A7
:10097000694B1860694B1868FFF7DEFC002840F0EF
:100980009482236813F0010F00F08180082D75D048
:100990000C2D71D06368B3F5803F00F09780B3F5FC
:1009A000A02F00F099805A4B1A6822F480321A6006
:1009B0001A6822F480221A606368002B00F0998084
:1009C000FFF7D0FE0746524B1B6813F4003F5ED181
:1009D000FFF7C8FEC01B6428F5D9032065E24C4B25
:1009E000D3F894301B0903F0F003A0E7FFF7C0FE33
:1009F000002840F05382464B1A6842F008021A6001
:100A00001A6822F0F002216A0A431A605A6822F436
:100A10007F42E16942EA01225A609EE7206AFFF7BD
:100A2000A7FE002899D001203FE2394B1A6842F016
:100A300008021A601A6822F0F002216A0A431A605A
:100A40005A6822F47F42E16942EA01225A6098E73B
:100A50002F4A136823F001031360FFF783FE074654
:100A60002B4B1B6813F0020F8BD0FFF77BFEC01BD4
:100A70000228F5D9032018E2032E8BD1244B1B68E2
:100A800013F4003F03D06368002B00F00982236851
:100A900013F0020F57D0042D44D00C2D40D0E36842
:100AA000002B76D01A4A136843F480731360FFF763
:100AB00059FE0646164B1B6813F4806F60D1FFF792
:100AC00051FE801B0228F5D90320EEE1104A13687D
:100AD00043F4803313606FE703F18043A3F53C33A5
:100AE0001A6842F480221A601A6842F480321A604E
:100AF00062E7FFF737FE0746054B1B6813F4003F1C
:100B0000C5D0FFF72FFEC01B6428F5D90320CCE128
:100B100000100240E030000808000020040000201F
:100B2000022EBCD1A44B1B6813F4806F03D0E36882
:100B3000002B00F0B781A04A536823F0F8532169D5
:100B400043EA01635360236813F0080F4CD06369D4
:100B50009BB3994AD2F8943043F00103C2F8943021
:100B6000FFF700FE0646944BD3F8943013F0020FC3
:100B70003AD1FFF7F7FD801B0228F4D9032094E156
:100B80008D4A536823F0F853216943EA01635360A7
:100B9000D9E7894A136823F480731360FFF7E2FDF5
:100BA0000646854B1B6813F4806FCCD0FFF7DAFD47
:100BB000801B0228F5D9032077E17F4AD2F89430D0
:100BC00023F00103C2F89430FFF7CCFD06467A4BC0
:100BD000D3F8943013F0020F06D0FFF7C3FD801B4B
:100BE0000228F4D9032060E1236813F0040F7CD0BD
:100BF000714B9B6D13F0805F37D16F4B9A6D42F054
:100C000080529A659B6D03F080530193019B0123F1
:100C10001F466A4B1B6813F4807F29D0A368012B01
:100C20003AD0052B40D0644BD3F8902022F001023B
:100C3000C3F89020D3F8902022F00402C3F890204B
:100C4000A368002B3ED0FFF78DFD06465A4BD3F824
:100C5000903013F0020F47D1FFF784FD801B41F263
:100C600088339842F2D903201FE100231F46D0E7C2
:100C7000524A136843F480731360FFF773FD06460E
:100C80004E4B1B6813F4807FC8D1FFF76BFD801BB0
:100C90000228F5D9032008E1474AD2F8903043F002
:100CA0000103C2F89030CBE7434BD3F8902042F0D9
:100CB0000402C3F89020D3F8902042F00102C3F858
:100CC0009020BDE7FFF74EFD06463B4BD3F8903032
:100CD00013F0020F08D0FFF745FD801B41F2883367
:100CE0009842F2D90320E0E0EFB9A36A002B00F0AC
:100CF000DB80022B1DD00C2D00F0DD802E4A136806
:100D000023F080731360FFF72DFD04462A4B1B6808
:100D100013F0007F00F0B780FFF724FD001B0228CE
:100D2000F4D90320C1E0244A936D23F080539365E6
:100D3000DBE7214BDB6803F00301E26A91420FD04D
:100D40000C2D00F0B4801C4B1B6813F0806F40F03A
:100D5000B080194B1B6813F0805F31D00120A4E0F4
:100D600003F07002216B0139B2EB011FE8D103F4EB
:100D7000FE42616BB2EB012FE2D103F40031A26BB2
:100D8000073A18BF01229142DAD103F4C001E26BA5
:100D90005208013AB1EB425FD2D103F0C063226C3A
:100DA0005208013AB3EB426FCAD1034B1B6813F0F0
:100DB000007F4ED0002078E000100240007000401C
:100DC0003E4A136823F080731360FFF7CBFC05469F
:100DD0003A4B1B6813F0007F06D0FFF7C3FC401BA3
:100DE0000228F5D9032060E0344AD3683449194019
:100DF000E36A206B013843EA0013606B43EA002387
:100E0000E06B4008013843EA4053206C4008013849
:100E100043EA4063A06B000943EA40431943D160B1
:100E2000136843F080731360D36843F08073D3601A
:100E3000FFF798FC0446214B1B6813F0007F06D196
:100E4000FFF790FC001B0228F5D903202DE00020BD
:100E50002BE01A4B1A6842F080721A60DA6842F08E
:100E60008072DA60FFF77EFC0446144B1B6813F0B7
:100E7000007F06D1FFF776FC031B022BF5D9032078
:100E800013E0002011E00D4AD1680E4B0B40D360F7
:100E900000200AE001207047012006E0012004E064
:100EA000012002E0012000E0184603B0F0BD01205F
:100EB000FBE70120F9E70120F7E700BF001002403F
:100EC0008C809DF9FCFFEEFE002800F0AF8070B52D
:100ED0000D460446594B1B6803F007038B420BD2A7
:100EE000564A136823F007030B431360136803F09B
:100EF00007038B4240F09C80236813F0020F0CD054
:100F0000A2684F4B9B6803F0F0039A4205D94C4905
:100F10008B6823F0F0031A438A60236813F0010FF3
:100F200039D06368032B09D0022B26D063BB444A17
:100F3000126812F0020F06D1012076E0404A1268D2
:100F400012F0007F76D03E498A6822F003021343F4
:100F50008B60FFF707FC0646394B9B6803F00C03D8
:100F60006268B3EB820F16D0FFF7FCFB801B41F2E7
:100F700088339842F0D9032057E0314A126812F4BE
:100F8000003FE0D1012050E02D4A126812F4806F3A
:100F9000D9D1012049E0236813F0020F0CD0A268D8
:100FA000274B9B6803F0F0039A4205D224498B68D3
:100FB00023F0F0031A438A60204B1B6803F00703F9
:100FC000AB420AD91D4A136823F007032B43136071
:100FD000136803F00703AB422ED1236813F0040F0C
:100FE00006D0174A936823F4E063E1680B439360EB
:100FF000236813F0080F07D0114A936823F4605355
:10100000216943EAC1039360FFF7FAFB0C4B9B682D
:10101000C3F303130B4AD35C03F01F03D8400A4BFE
:1010200018600A4B1868FFF787F970BD01207047F8
:101030000120FAE70120F8E70120F6E7002002404E
:1010400000100240E03000080800002004000020EA
:10105000014B1868704700BF0800002008B5FFF773
:10106000F7FF054B9B68C3F30223044AD35C03F0EC
:101070001F03D84008BD00BF00100240D830000850
:101080000F2303600B4B9A6802F0030242609A68D8
:1010900002F0F00282609A6802F4E062C2609B682B
:1010A000DB0803F4E0630361034B1B6803F00703F1
:1010B0000B6070470010024000200240024B18688D
:1010C00000F4C060704700BF00700040B0F5007FC2
:1010D0000FD01F4B1B6803F4C063B3F5806F34D08F
:1010E0001B4A136823F4C06343F480631360002039
:1010F0007047174B1B6803F4C063B3F5007F20D023
:10110000134A136823F4C06343F400731360114B54
:101110001B68322202FB03F30F4AA2FB03239B0C42
:10112000013300E0013B0A4A526912F4806F01D09A
:10113000002BF7D1064B5B6913F4806F03D10020BD
:10114000704700207047032070470020704700BFA1
:10115000007000400800002083DE1B43002807DBEE
:1011600000F01F02400901239340024A42F8203058
:10117000704700BF00E100E0002808DB0901C9B2A8
:1011800000F1604000F5614080F80013704700F006
:101190000F000901C9B2014B1954704714ED00E06A
:1011A00000B500F00700A0F1030CBCF1040F07D854
:1011B000C0F1070E0430062806D84FF0000C03E0FB
:1011C0004FF0040E4FF0000C4FF0FF3303FA0EF017
:1011D00021EA000101FA0CF103FA0CF322EA0302FE
:1011E00041EA020000BD0000074AD36823F4E0632F
:1011F0001B041B0C000200F4E060034343F0BF63D8
:1012000043F40033D360704700ED00E010B50446AE
:10121000054BD868C0F30220FFF7C2FF0146204605
:10122000FFF7AAFF10BD00BF00ED00E008B5FFF713
:1012300095FF08BD034AD2F8883043F47003C2F822
:101240008830704700ED00E000F1080343604FF084
:10125000FF328260C3600361002303607047002394
:101260000361704743684B609A688A605160996077
:101270000861036801330360704710B402460846F2
:10128000D1F800C0BCF1FF3F11D002F108031946AC
:101290005B681C686445FAD94B684360986081605C
:1012A0004860026113680133136010BC7047116914
:1012B000F2E70369416882688A60416851605A6850
:1012C000824206D0002202611A68013A1A60186848
:1012D000704782685A60F5E710B5044601F0FAFCE1
:1012E000A26BE36B9A4204D0002401F015FD204666
:1012F00010BD0124F9E710B5044601F0EBFCA36B27
:101300002BB901231C4601F007FD204610BD002328
:101310001C46F8E770B504461646856B026C5AB950
:1013200003681BB100200135A56370BD806800F023
:10133000FDFF0023A360F6E76EB9406801F076FE7A
:101340006368226C13446360A268934219D32368D4
:1013500063603046E7E7C06801F068FEE368226C2E
:1013600051429B1AE3602268934202D2A3680B4465
:10137000E360022E01D00020D5E725B1013D002019
:10138000D1E73046CFE72846CDE70346026C6AB185
:1013900010B50846D9681144D9609C68A14201D3B0
:1013A0001968D960D96801F041FE10BD704738B5A1
:1013B000054601F08FFC95F8454064B201E0013C20
:1013C00064B2002C0ADD6B6A43B105F1240000F021
:1013D000FFFE0028F3D000F093FFF0E7FF2385F82D
:1013E000453001F099FC01F075FC95F8444064B279
:1013F00001E0013C64B2002C0ADD2B6943B105F128
:10140000100000F0E5FE0028F3D000F079FFF0E7CF
:10141000FF2385F8443001F07FFC38BD38B5E0B1DA
:101420000D46044601F056FC2368E26B216C01FB7B
:101430000230A0600020A0636360013A02FB013328
:10144000E360FF2384F8443084F84530FDB9236914
:1014500063B901F061FC012038BD4FF0500383F304
:101460001188BFF36F8FBFF34F8FFEE704F11000B9
:1014700000F0AEFE0028ECD04FF0E0234FF0805299
:10148000C3F8042DBFF34F8FBFF36F8FE1E704F173
:101490001000FFF7D9FE04F12400FFF7D5FED8E7CE
:1014A00038B51D46049C0B4649B92460E0632364AB
:1014B00001212046FFF7B2FF84F84C5038BD22606E
:1014C000F4E740B94FF0500383F31188BFF36F8FF7
:1014D000BFF34F8FFEE710B584B01C46844653B16E
:1014E00092B189B94FF0500383F31188BFF36F8F26
:1014F000BFF34F8FFEE74FF0500383F31188BFF324
:101500006F8FBFF34F8FFEE76AB150230393039BA6
:10151000502B13D04FF0500383F31188BFF36F8F1C
:10152000BFF34F8FFEE70029EFD04FF0500383F356
:101530001188BFF36F8FBFF34F8FFEE7039B01232B
:1015400084F8463000949DF818306046FFF7A8FFF5
:10155000204604B010BDF0B585B0019288B10F46A9
:101560001D460446B1B1022D20D1E36B012B1DD0E5
:101570004FF0500383F31188BFF36F8FBFF34F8F8A
:10158000FEE74FF0500383F31188BFF36F8FBFF373
:101590004F8FFEE7036C002BE5D04FF0500383F331
:1015A0001188BFF36F8FBFF34F8FFEE700F0AEFEE1
:1015B000064658B9019B002B48D04FF0500383F3E7
:1015C0001188BFF36F8FBFF34F8FFEE700263DE01A
:1015D0002A4639462046FFF79DFE636A7BB948B12B
:1015E0004FF0E0234FF08052C3F8042DBFF34F8F2C
:1015F000BFF36F8F01F090FB012005B0F0BD04F147
:10160000240000F0E5FD0028F4D04FF0E0234FF077
:101610008052C3F8042DBFF34F8FBFF36F8FE9E7FC
:1016200001F07AFB0020E8E702A800F019FE01268D
:1016300019E0002384F8443021E0002384F8453089
:1016400023E02046FFF7B3FE00F084FC01F042FBEC
:10165000A26BE36B9A42BBD3022DB9D0019B002B46
:10166000DED0002EE0D001F057FB00F0D3FB01F0FC
:1016700031FB94F8442052B2B2F1FF3FD9D094F834
:10168000452052B2B2F1FF3FD7D001F045FB01A98E
:1016900002A800F0F1FDD8B92046FFF71DFE002892
:1016A000CFD0019904F1100000F05CFD2046FFF757
:1016B0007EFE00F04FFC0028C8D14FF0E0234FF031
:1016C0008052C3F8042DBFF34F8FBFF36F8FBDE778
:1016D0002046FFF76CFE00F03DFC00208DE72DE971
:1016E000F84390B10F4690461E460446B1B1022E13
:1016F00020D1E36B012B1DD04FF0500383F31188F1
:10170000BFF36F8FBFF34F8FFEE74FF0500383F3AC
:101710001188BFF36F8FBFF34F8FFEE7036C002B71
:10172000E5D04FF0500383F31188BFF36F8FBFF301
:101730004F8FFEE701F0F6FBEFF311834FF05002FD
:1017400082F31188BFF36F8FBFF34F8F9946A26B5F
:10175000E36B9A4206D3022E04D0002089F311884D
:10176000BDE8F88394F845305DB2A36B3246394644
:101770002046FFF7CFFDB5F1FF3F06D02B460133E2
:101780005BB284F845300120E8E7636A0BB90120B9
:10179000E4E704F1240000F01BFD28B143462BB11F
:1017A0000120C8F80000D9E70120D7E70120D5E7DC
:1017B000F0B585B0019290B10F460446C1B100F07A
:1017C000A5FD064600BB019B002B5ED04FF05003E9
:1017D00083F31188BFF36F8FBFF34F8FFEE74FF096
:1017E000500383F31188BFF36F8FBFF34F8FFEE772
:1017F000036C002BE3D04FF0500383F31188BFF349
:101800006F8FBFF34F8FFEE700263EE0394620463C
:10181000FFF7BBFD013DA563236923B901F07CFA05
:10182000012005B0F0BD04F1100000F0D1FC00284B
:10183000F4D04FF0E0234FF08052C3F8042DBFF3F3
:101840004F8FBFF36F8FE9E701F066FA2846E8E7AC
:1018500002A800F005FD012621E0002384F84430B1
:1018600029E0002384F845302BE02046FFF79FFD58
:1018700000F070FB09E02046FFF799FD00F06AFBDD
:101880002046FFF738FD00283FD101F023FAA56B71
:10189000002DBBD1019B002BD6D0002ED8D001F05B
:1018A0003BFA00F0B7FA01F015FA94F844305BB255
:1018B000B3F1FF3FD1D094F845305BB2B3F1FF3FB5
:1018C000CFD001F029FA01A902A800F0D5FC002828
:1018D000D1D12046FFF70FFD0028C6D0019904F1B1
:1018E000240000F03FFC2046FFF761FD00F032FBD2
:1018F0000028CAD14FF0E0234FF08052C3F8042DE6
:10190000BFF34F8FBFF36F8FBFE7002089E7000061
:101910000023072B0CD8074A52F833200AB10133B1
:10192000F7E7044A42F8331002EBC30250607047F5
:10193000704700BF8000002070B504460D46164673
:1019400001F0C8F994F844305BB2B3F1FF3F0DD019
:1019500094F845305BB2B3F1FF3F0BD001F0DCF9F6
:10196000A36B5BB12046FFF722FD70BD002384F816
:101970004430EDE7002384F84530EFE7324629464E
:1019800004F1240000F006FCECE70000084B1B68A3
:101990001B6823B9074B4FF0FF321A607047044BA6
:1019A0001B68DB68DB685A68024B1A60704700BF2F
:1019B00030010020C80000202DE9F84380460D4684
:1019C00017469946089E0A9C9200A521206B01F0BB
:1019D00000FB236B07F18042013A03EB820323F003
:1019E000070795B34FF0000CBCF10F0F09D815F89D
:1019F0000C3004EB0C0282F8343013B10CF1010C02
:101A0000F2E7002384F84330372E00D93726E66208
:101A1000E66400252565201DFFF721FC04F1180070
:101A2000FFF71DFC2461C6F13806A6616462656596
:101A300084F858504A464146384601F023F9206060
:101A4000099B03B11C60BDE8F883002384F834309F
:101A5000DAE7000038B5002407E004EB84000F4B00
:101A600003EB8000FFF7F0FB0134372CF5D90C4D68
:101A70002846FFF7E9FB0B4C2046FFF7E5FB0A4839
:101A8000FFF7E2FB0948FFF7DFFB0948FFF7DCFB44
:101A9000084B1D60084B1C6038BD00BF5C01002076
:101AA000480100203401002018010020040100201A
:101AB000EC000020300100202C01002010B504466D
:101AC00001F008F9224A136801331360214B1B68A7
:101AD0005BB1214B1B686BB91E4B1B68DA6AE36A6A
:101AE0009A4207D81B4B1C6004E01A4B1C60136819
:101AF000012B29D0194A1368013313606364E06A2B
:101B0000174B1B68984201D9154B186000EB8000F9
:101B1000211D144B03EB8000FFF7A4FB01F0FCF840
:101B20000D4B1B687BB10B4B1B68DA6AE36A9A4268
:101B300009D24FF0E0234FF08052C3F8042DBFF3D9
:101B40004F8FBFF36F8F10BDFFF784FFD2E700BF49
:101B5000E8000020BC050020DC000020CC000020B4
:101B6000E00000205C01002010B5044690F85930D8
:101B700063B1012B11D0022B0ED04FF0500383F331
:101B80001188BFF36F8FBFF34F8FFEE7006B00F03C
:101B9000FBFF204600F0F8FF10BD00F0F5FFFBE76B
:101BA0000F4B1B68D3B110B501F094F80D4BDB68F7
:101BB000DC68201DFFF77DFB0B4A1368013B1360B7
:101BC000074A1368013B136001F0A6F82046FFF7AF
:101BD000CBFF034B1B68002BE6D110BD704700BF45
:101BE0000001002004010020E800002070B5044638
:101BF0000E46174B1D68174B18680430FFF759FB4A
:101C0000B4F1FF3F0DD02C44124B1B685C60A54221
:101C100010D9114B18680F4B19680431FFF72DFBD1
:101C200070BD002EEFD00B4B196804310B48FFF745
:101C300019FBF5E70A4B1868064B19680431FFF7E2
:101C40001CFB084B1B68A342EAD9064B1C60E7E764
:101C5000E4000020BC0500202C010020EC00002046
:101C600030010020C800002008B50BE04FF0E02351
:101C70004FF08052C3F8042DBFF34F8FBFF36F8F27
:101C8000FEF728FBFFF78CFF024B1B68012BEDD8FA
:101C9000F6E700BF5C01002010B586B08C460999BC
:101CA00079B10A99B1B15C21049104995C291AD0E7
:101CB0004FF0500383F31188BFF36F8FBFF34F8F43
:101CC000FEE74FF0500383F31188BFF36F8FBFF32C
:101CD0004F8FFEE74FF0500383F31188BFF36F8FF0
:101CE000BFF34F8FFEE7DDF810E00A99099C0C6303
:101CF00002210A9C84F8591000210391029405A93D
:101D00000191089900916146FFF756FE0A98FFF786
:101D1000D5FE059806B010BD2DE9F04385B081468B
:101D2000884614461F46900000F0A2FE00B3064607
:101D30005C2000F09DFE0546A0B12E63002380F8D4
:101D40005930039302900D9B01930C9B00933B46EB
:101D5000224641464846FFF72FFE2846FFF7AEFED3
:101D6000012007E0304600F00FFF4FF0FF3001E0A8
:101D70004FF0FF3005B0BDE8F083000010B588B02B
:101D800000240594069407AA06A905A800F0F6FD0C
:101D9000059B0293069B019300942346079A1749DB
:101DA0001748FFF779FF174B186018B100F072FB66
:101DB000012804D0B0F1FF3F16D008B010BD4FF09D
:101DC000500383F31188BFF36F8FBFF34F8F0E4B18
:101DD0004FF0FF321A600D4B01221A600C4B0022AB
:101DE0001A6001F011F8E8E74FF0500383F311880F
:101DF000BFF36F8FBFF34F8FFEE700BF6C3000085B
:101E0000691C0008C4000020C8000020DC0000207D
:101E1000E4000020024A136801331360704700BFDA
:101E2000C0000020014B1868704700BFE40000208C
:101E3000F8B53D4B1B68002B6ED13C4B1D6801353E
:101E40001D60C5B93A4B1B681B6843B14FF0500386
:101E500083F31188BFF36F8FBFF34F8FFEE7344AD0
:101E60001168344B186810601960334A13680133E5
:101E70001360FFF78BFD314B1B68AB4241D9002348
:101E80001F462F4B1B68DB6A03EB83039B002D4A25
:101E9000D358012B01D901231F462B4B1B68002B64
:101EA00040D001231F463DE001231F46204B1B6805
:101EB0001B684BB31E4B1B68DB68DC6863689D4284
:101EC00027D3261D3046FFF7F4F9A36A1BB104F1AE
:101ED0001800FFF7EEF9E06A1C4B1B68984201D925
:101EE0001A4B186000EB80003146164B03EB800064
:101EF000FFF7B8F9E26A124B1B68DB6A9A42D3D249
:101F0000D4E700231F46D1E70C4B4FF0FF321A6095
:101F1000B7E70A4A1360B4E70D4A13680133136048
:101F200000231F463846F8BDC0000020E400002012
:101F3000300100202C010020D0000020C80000202B
:101F4000BC0500205C010020D4000020E00000203F
:101F5000D800002038B5354B1B6843B94FF050030B
:101F600083F31188BFF36F8FBFF34F8FFEE700F04D
:101F7000B1FE2E4B1A68013A1A601B68002B4FD134
:101F80002B4B1B680BB91C464BE00024294B1B68EC
:101F90001BB3284BDB68DC6804F11800FFF789F9F4
:101FA000251D2846FFF785F9E06A234B1B689842F8
:101FB00001D9214B186000EB800029461F4B03EB31
:101FC0008000FFF74FF9E26A1D4B1B68DB6A9A42FB
:101FD000DCD31C4B01221A60D8E70CB1FFF7D6FC0A
:101FE000194B1C6884B9174B1C68D4B14FF0E0231F
:101FF0004FF08052C3F8042DBFF34F8FBFF36F8FA4
:1020000001240EE0013C07D0FFF712FF0028F9D0B1
:102010000C4B01221A60F5E70B4B00221A60E2E735
:10202000002400F079FE204638BD00BFC00000202B
:10203000E800002018010020E00000205C010020E2
:10204000BC050020D4000020D800002010B5A8B1A5
:102050000446104B1B6843B14FF0500383F31188C3
:10206000BFF36F8FBFF34F8FFEE7FFF7D3FE002163
:102070002046FFF7BBFDFFF76DFF48B94FF0E023A7
:102080004FF08052C3F8042DBFF34F8FBFF36F8F13
:1020900010BD00BFC000002008B52D4B1B681BB150
:1020A0002C4B01221A6008BD2A4B00221A602A4BD1
:1020B0001B681B6B1A68B2F1A53F03D15A68B2F1D5
:1020C000A53F10D0244B186819683431FEF703F986
:1020D000224B1B6803EB8302920021498A58A2B964
:1020E00053B1013BF6E79A68B2F1A53FEAD1DB684C
:1020F000B3F1A53FE6D1EBE74FF0500383F311882E
:10210000BFF36F8FBFF34F8FFEE7084603EB8302E9
:1021100001EB820251684968516003EB830292002F
:102120000832024491420BD003EB83010C4A02EBCC
:1021300081025268D168084A1160084A1360B2E708
:10214000486803EB8301064A02EB81025060EBE72B
:10215000C0000020D4000020BC050020E0000020CA
:102160005C01002058B110B50C46094A11681831BD
:10217000FFF783F801212046FFF738FD10BD4FF02F
:10218000500383F31188BFF36F8FBFF34F8FFEE7C8
:10219000BC05002038B578B10D4614460B4A1168CD
:1021A0001831FFF75FF814B14FF0FF331D46214699
:1021B0002846FFF71BFD38BD4FF0500383F311880D
:1021C000BFF36F8FBFF34F8FFEE700BFBC0500204A
:1021D00038B5C368DC6834B304F118031D461846EB
:1021E000FFF767F8184B1B6833BB231D1D461846C5
:1021F000FFF75FF8E06A154B1B68984201D9134B53
:10220000186000EB80002946114B03EB8000FFF7BC
:1022100029F8E26A0F4B1B68DB6A9A4211D9012048
:102220000D4B186038BD4FF0500383F31188BFF396
:102230006F8FBFF34F8FFEE729460848FFF712F86C
:10224000E7E70020EEE700BFC0000020E00000202C
:102250005C010020BC050020D400002018010020F3
:10226000034B1B680360034B1B684360704700BF50
:10227000D0000020E4000020E0B170B50C46064616
:1022800009B300F027FD1C4B19687368C81A22684F
:10229000B2F1FF3F28D03568DFF860C0DCF800C03D
:1022A000654501D08B4224D9824215D80023236092
:1022B00001241AE04FF0500383F31188BFF36F8FAE
:1022C000BFF34F8FFEE74FF0500383F31188BFF346
:1022D0006F8FBFF34F8FFEE75B1A134423603046C6
:1022E000FFF7BEFF002400E0002400F015FD2046AB
:1022F00070BD0124F9E700BFE4000020D0000020F9
:10230000014B01221A607047D4000020054B1B6866
:1023100033B1054B1B680BB100207047022070479A
:1023200001207047DC000020C000002000283ED0C3
:1023300038B504461E4B1B68834208D04FF050034B
:1023400083F31188BFF36F8FBFF34F8FFEE7036DE9
:1023500043B94FF0500383F31188BFF36F8FBFF37E
:102360004F8FFEE7013B0365C16AC26C91421CD0EE
:102370000BB1002038BD031D1D461846FEF799FF1E
:10238000E06CE062C0F13803A3610A4B1B6898421D
:1023900001D9084B186000EB80002946064B03EB7F
:1023A0008000FEF75FFF0120E4E70020E2E77047CE
:1023B000BC050020E00000205C010020064B1A68EC
:1023C00013682BB90123036023B9D36818687047D9
:1023D0000023F8E700207047C006002008B54160E0
:1023E000006191420CD8D21A83699A4201D301202C
:1023F00008BD011D094B1868FEF73FFF0020F7E7F5
:102400009A4201D2994206D2011D054B1868FEF787
:1024100034FF0020ECE70120EAE700BFBC06002003
:10242000C006002000B583B000F054FC114B1B68BF
:102430001BB100F071FC03B000BD0F48FEF704FFB4
:102440000E48FEF701FF0E4B0B4A1A600D4B0B4A6C
:102450001A60002300930C4B0C4A10210A20FFF74E
:1024600030F8044B18600028E3D00949FFF750FA10
:10247000DFE700BFB8060020D8060020C406002011
:10248000C0060020BC060020C00500201006002069
:102490007430000810B588B0FFF7C4FF124B1B68FA
:1024A000CBB100240594069407AA06A905A800F05C
:1024B00071FA059B0293069B019302230093234626
:1024C000079A0A490A48FFF7E7FB0A4B186010B160
:1024D000012008B010BD4FF0500383F31188BFF303
:1024E0006F8FBFF34F8FFEE7B80600207C300008E7
:1024F00011280008B4060020B8B19C4603461748CE
:10250000006850B300B585B000910192029305298F
:102510001CDCFFF7FBFE022810D000231A46694698
:102520000E480068FFF717F815E04FF0500383F3EB
:102530001188BFF36F8FBFF34F8FFEE70023069A1A
:10254000694606480068FFF706F804E00023624683
:102550006946FFF7C4F805B000BD7047B806002013
:1025600070B582B01B4B1B681A6862B3DB681E68CB
:10257000DC68251D2846FEF79CFE236A2046984706
:1025800094F8283013F0040FECD0A36933449E4232
:1025900007D26360246129460E4B1868FEF76DFE72
:1025A000E0E7002100910B4632462046FFF7A4FFEA
:1025B0000028D7D14FF0500383F31188BFF36F8FFA
:1025C000BFF34F8FFEE7044A1068024908601360AA
:1025D00002B070BDC0060020BC06002038B505461C
:1025E000FFF720FC0446074B1B68834205D80023F5
:1025F0002B60044B1C60204638BDFFF7B1FF012360
:102600002B60F6E7B006002070B582B005460E4696
:1026100017490968C968CC68201DFEF74AFE94F87E
:1026200028C01CF0040F08D12CF0010C84F828C03D
:10263000236A2046984702B070BDA1692B463246F6
:1026400029442046FFF7CAFE0028F1D0002100915E
:102650000B462A462046FFF74FFF0028E8D14FF0EF
:10266000500383F31188BFF36F8FBFF34F8FFEE7E3
:10267000C006002070B582B005460C46FFF7CAFBC5
:1026800001A8FFF7ABFF019B3BBB0646E4B9A8429C
:1026900013D22246A91B134B1868FFF74DF9FFF719
:1026A00059FCE0B94FF0E0234FF08052C3F8042DFD
:1026B000BFF34F8FBFF36F8F11E0FFF74BFC314635
:1026C0002846FFF7A1FF0AE0074A1268126812B90C
:1026D00001231C46DDE71C46DBE7FFF73BFC02B0AD
:1026E00070BD00BFB8060020BC06002010B588B041
:1026F00002E0049B002B0FDA002204A9434B186868
:10270000FFF756F800287ED0049B002BF1DA0799DA
:102710000698059B9847ECE7069C636913B1201D5A
:10272000FEF7C7FD03A8FFF759FF049B052B5CD0FC
:1027300041DC032B49D02CDC022BDDD894F8283067
:1027400043F0010384F82830059BA169024619442F
:102750002046FFF743FE0028CED0236A2046984744
:1027600094F8283013F0040FC6D0A269002100911C
:102770000B46059802442046FFF7BEFE0028BBD159
:102780004FF0500383F31188BFF36F8FBFF34F8F68
:10279000FEE7042BB0D194F8283043F0010384F80D
:1027A00028300599A161B9B103460246014420468B
:1027B000FFF714FEA0E7082B07D003DC063B012B34
:1027C000BCD999E7092BE6D096E794F8283023F096
:1027D000010384F828308FE74FF0500383F311880A
:1027E000BFF36F8FBFF34F8FFEE794F8283013F0DD
:1027F000020F04D023F0010384F828307CE7204640
:1028000000F0C2F978E708B010BD00BFB80600209C
:1028100000B583B001A8FFF7D1FD0199FFF72AFFAA
:10282000FFF764FFF6E708B54FF0E0231B69FFF7F9
:102830006DFD012800D108BD00F0BCFAFBE70000E7
:10284000EFF305832BB9064B186828B901221A60EB
:1028500070476FF0050070474FF0FF30704700BFC2
:10286000A40D002008B5EFF3058373B90A4B1B686C
:10287000012B0DD1094B4FF00002DA77064B0222F3
:102880001A60FFF77BFA002008BD6FF00500FBE738
:102890004FF0FF30F8E700BFA40D002000ED00E08E
:1028A00070B586B000230593EFF3058343BB38B3BF
:1028B000002A3DD0D2F800E093692BB11D46013BC0
:1028C000372B03D900201CE018231D46536813F052
:1028D000010F44D1D2F814C0BCF1000F13D04FEA5D
:1028E0009C031E4693683BB1D4685B2C04D91469E1
:1028F00014B1BCF1000F11D143B14FF0FF330BB352
:10290000059806B070BD80231E46EBE7D368B3B9C7
:102910001369002BF3D04FF0FF33F0E702930194DB
:1029200000950B4632467146FFF7B6F90590E7E78A
:10293000964613461822154680221646DFE74FF0CA
:10294000FF33DCE705AB019300950B46B2B271464D
:10295000FFF7E2F90128D3D000230593D0E7002048
:10296000CFE708B5EFF305832BB900B908BDFFF732
:102970006DFB0020FAE76FF00500F7E7034B0360FB
:10298000034B0B6080231360704700BF480D00208D
:10299000480B0020034B0360034B0B604FF4807324
:1029A00013607047EC0A0020EC060020134A12F076
:1029B000070F1FD0D11D21F00701C1F56A5318334D
:1029C00013440A460E480260002141601344083B4C
:1029D00023F007030B48036059601960991A51608E
:1029E0001360094B1960094B1960094B4FF0004205
:1029F0001A60704743F69823E4E700BFC80D002033
:102A0000C00D0020BC0D0020B40D0020B80D00202A
:102A1000A80D0020144B1A461B688342FBD3516853
:102A200002EB010C844509D0416800EB010C6345C1
:102A300009D00360904200D01060704740680144A4
:102A400051601046F0E7DFF824C0DCF800C06345B1
:102A500006D05B681944416013681B680360E9E7AE
:102A6000C0F800C0E6E700BFC00D0020BC0D00208C
:102A700038B50446FFF7CEF93D4B1B68ABB13D4B73
:102A80001B681C4214D1002C6AD004F1080214F017
:102A9000070F02D022F007020832D2B1364B1B6872
:102AA00093421AD335490C681DE0FFF77FFFE6E734
:102AB000FFF750FA0025FDF70FFC15F0070F55D072
:102AC0004FF0500383F31188BFF36F8FBFF34F8F25
:102AD000FEE7FFF73FFA0025EDE7FFF73BFA002599
:102AE000E9E721461C466368934202D22368002B23
:102AF000F7D11F4B1B68A34214D00D68083523681B
:102B00000B6063689B1A102B14D9A01810F0070FE4
:102B10000CD04FF0500383F31188BFF36F8FBFF3D6
:102B20004F8FFEE7FFF716FA0025C4E743606260A7
:102B3000FFF770FF626810490B689B1A0B60104921
:102B400009688B4201D20E490B600A4B1B68134384
:102B50006360002323600B4A13680133136000E0B5
:102B60002546FFF7F7F9002DA7D1A4E7284638BD81
:102B7000BC0D0020A80D0020B80D0020C00D0020C5
:102B8000B40D0020B00D0020002835D038B5044623
:102B9000A0F108031D4650F8043C184A126813427D
:102BA00008D14FF0500383F31188BFF36F8FBFF349
:102BB0004F8FFEE750F8081C41B14FF0500383F3EC
:102BC0001188BFF36F8FBFF34F8FFEE723EA020335
:102BD00040F8043CFFF71EF954F8041C084A136837
:102BE0000B4413602846FFF715FF064A13680133AC
:102BF0001360FFF7AFF938BD704700BFA80D002084
:102C0000B80D0020AC0D002082B0002301930D4BC5
:102C10001B68B3F1FF3F08D04FF0500383F31188D6
:102C2000BFF36F8FBFF34F8FFEE74FF0500383F377
:102C30001188BFF36F8FBFF34F8F019B002BFCD028
:102C400002B070470C00002008480068006880F35C
:102C500008884FF0000080F3148862B661B6BFF3B5
:102C60004F8FBFF36F8F00DF00BF000008ED00E063
:102C7000DFF80C00016841F470010160704700004A
:102C800088ED00E04FF0807340F8043C21F0010132
:102C900040F8081C054B40F80C3C40F8202C6FF025
:102CA000020340F8243C4438704700BF092C000858
:102CB000074B19680868B0E8F04F80F30988BFF344
:102CC0006F8F4FF0000080F311887047AFF30080E2
:102CD000BC0500204FF0500383F31188BFF36F8FC2
:102CE000BFF34F8F0B4A136801331360012B00D0E1
:102CF00070474FF0E023D3F8043D13F0FF0FF7D0F7
:102D00004FF0500383F31188BFF36F8FBFF34F8FE2
:102D1000FEE700BF0C000020094B1B6843B94FF0D1
:102D2000500383F31188BFF36F8FBFF34F8FFEE71C
:102D3000013B034A13600BB983F31188704700BF4E
:102D40000C00002000000000000000000000000057
:102D5000EFF30980BFF36F8F154B1A681EF0100F49
:102D600008BF20ED108A20E9F04F106009B44FF041
:102D7000500080F31188BFF34F8FBFF36F8FFFF7C1
:102D80008BF94FF0000080F3118809BC19680868BE
:102D9000B0E8F04F1EF0100F08BFB0EC108A80F3BF
:102DA0000988BFF36F8F7047AFF30080AFF30080E7
:102DB000BC05002008B54FF0500383F31188BFF322
:102DC0006F8FBFF34F8FFFF733F828B14FF0E02339
:102DD0004FF08052C3F8042D002383F3118808BDFF
:102DE0004FF0E022002313619361054B1B680549F6
:102DF000A1FB03139B09013B536107231361704738
:102E000008000020D34D62104FF0E023D3F8002DCE
:102E10003E4B9A421CD04FF0E023D3F8002D3C4BA0
:102E20009A421ED010B582B03A4B1A78D2B20192B3
:102E3000FF221A701B78DBB28DF803309DF8033047
:102E400003F05003344A1370344B07221A601BE01E
:102E50004FF0500383F31188BFF36F8FBFF34F8F91
:102E6000FEE74FF0500383F31188BFF36F8FBFF37A
:102E70004F8FFEE7294A1368013B13609DF803302A
:102E80005B00DBB28DF803309DF8033013F0800F48
:102E9000F0D1224B1B68032B08D04FF0500383F373
:102EA0001188BFF36F8FBFF34F8FFEE71B021B4AE2
:102EB000136003F4E0631360019BDBB2154A1370E7
:102EC0004FF0E022D2F8203D43F47003C2F8203DD9
:102ED000D2F8203D43F070431446C2F8203DFFF77E
:102EE0007FFF0F4B00221A60FFF7C2FED4F8343F79
:102EF00043F04043C4F8343FFFF7A6FEFFF7CCF899
:102F0000FFF782FE002002B010BD00BF71C20F416A
:102F100070C20F4100E400E06448002060480020D7
:102F20000C000020EFF305830F2B0ED9114A9A5C99
:102F3000114B1B789A4208D24FF0500383F311884B
:102F4000BFF36F8FBFF34F8FFEE74FF0E023D3F84F
:102F50000C3D03F4E063094A1268934208D94FF02C
:102F6000500383F31188BFF36F8FBFF34F8FFEE7DA
:102F7000704700BFF0E300E0644800206048002094
:102F8000DFF834D0FEF756F90C480D490D4A0023FE
:102F900002E0D458C4500433C4188C42F9D30A4A0E
:102FA0000A4C002301E013600432A242FBD300F07C
:102FB00019F8FDF777F9FEE70080012000000020F6
:102FC0001000002000310008100000206848002098
:102FD000FEE702440346934200D1704703F8011B09
:102FE000F9E7000070B50D4B0D4C00261D1BB6EB2C
:102FF000A50F09D100F028F80A4C0B4B00261D1B29
:10300000B6EBA50F05D170BD54F8043B98470136C7
:10301000EDE754F8043B98470136F1E7F03000083B
:10302000F0300008F0300008F43000080A44914203
:1030300000F1FF3300D1704710B511F8014B03F8D0
:10304000014F9142F9D110BDF8B500BFF8BC08BCE2
:103050009E467047F8B500BFF8BC08BC9E46704756
:1030600064656661756C745461736B0049444C45CA
:1030700000000000546D725100000000546D722079
:10308000537663006030000800000000000000007C
:103090000000000000000000000200001800000016
:1030A0000000000000000000A0860100400D0300A9
:1030B000801A060000350C0040420F0080841E007C
:1030C00000093D0000127A000024F40000366E0171
:1030D0000048E801006CDC0200000000010203046B
:1030E00000000000000000000102030406070809B8
:0830F000F901000800000000D6
:0830F800D101000800000000F6
:10310000010000001000000000093D00AAAAAAAAC0
:0400000508002F813F
:00000001FF
